:020000040800F2
:10000000000002202D300008291700082B170008D7
:100010002D1700082F1700083117000800000000F6
:10002000000000000000000000000000331700087E
:1000300035170008000000003717000839170008BE
:100040007D3000087D3000087D3000087D300008DC
:100050007D3000087D3000087D3000087D300008CC
:100060007D3000087D3000087D3000087D300008BC
:100070007D3000087D3000087D3000087D300008AC
:100080007D3000087D3000087D3000087D3000089C
:100090007D3000087D3000087D3000087D3000088C
:1000A0004117000851170008611700087117000870
:1000B0008117000891170008A11700087D3000087B
:1000C0007D3000087D3000087D3000087D3000085C
:1000D0007D3000087D300008B11700087D30000831
:1000E0007D3000087D3000087D3000087D3000083C
:1000F000C11700087D3000087D3000087D30000801
:100100007D3000087D3000087D3000087D3000081B
:100110007D3000087D3000087D3000087D3000080B
:100120007D3000087D3000087D3000087D300008FB
:100130007D3000087D3000087D3000087D300008EB
:100140007D3000087D3000087D3000087D300008DB
:100150007D3000087D3000087D3000087D300008CB
:100160007D3000087D3000087D3000087D300008BB
:100170007D3000087D3000087D3000080000000060
:080180007D3000087D3000080D
:1001900010B5054C237833B9044B13B10448AFF3C1
:1001A00000800123237010BDE40100200000000046
:1001B0001462000808B5034B1BB103490348AFF3B1
:1001C000008008BD00000000E80100201462000863
:1001D000034613F8012B002AFBD1181A0138704787
:1001E00001F0FF01102A2BDB10F0070F08D010F8E8
:1001F000013B013A8B422DD010F0070F42B3F6D1EC
:10020000F0B441EA012141EA014122F007047FF004
:1002100000070023F0E80256083C85EA010586EA5B
:10022000010685FA47F5A3FA87F586FA47F6A5FA97
:1002300087F68EB9EED1F0BC01F0FF0102F00702A3
:1002400032B110F8013B013A83EA010313B1F8D14E
:100250000020704701387047002D06BF354603382F
:10026000073815F0010F07D1013015F4807F02BF68
:10027000013015F4C03F0130F0BC0138704700BFB9
:1002800081F0004102E000BF83F0004330B54FEA47
:1002900041044FEA430594EA050F08BF90EA020FB4
:1002A0001FBF54EA000C55EA020C7FEA645C7FEA47
:1002B000655C00F0E2804FEA5454D4EB5555B8BF6A
:1002C0006D420CDD2C4480EA020281EA030382EADB
:1002D000000083EA010180EA020281EA0303362D6D
:1002E00088BF30BD11F0004F4FEA01314FF4801C40
:1002F0004CEA113102D0404261EB410113F0004F52
:100300004FEA03334CEA133302D0524263EB430308
:1003100094EA050F00F0A780A4F10104D5F1200EA6
:100320000DDB02FA0EFC22FA05F2801841F1000101
:1003300003FA0EF2801843FA05F359410EE0A5F1D5
:1003400020050EF1200E012A03FA0EFC28BF4CF006
:10035000020C43FA05F3C01851EBE37101F00045BC
:1003600007D54FF0000EDCF1000C7EEB00006EEBC9
:100370000101B1F5801F1BD3B1F5001F0CD3490853
:100380005FEA30004FEA3C0C04F101044FEA4452AA
:1003900012F5800F80F09A80BCF1004F08BF5FEA31
:1003A000500C50F1000041EB045141EA050130BD11
:1003B0005FEA4C0C404141EB0101013C28BFB1F523
:1003C000801FE9D291F0000F04BF01460020B1FA6E
:1003D00081F308BF2033A3F10B03B3F120020CDA41
:1003E0000C3208DD02F1140CC2F10C0201FA0CF01F
:1003F00021FA02F10CE002F11402D8BFC2F1200C84
:1004000001FA02F120FA0CFCDCBF41EA0C01904039
:10041000E41AA2BF01EB0451294330BD6FEA040482
:100420001F3C1CDA0C340EDC04F11404C4F120026D
:1004300020FA04F001FA02F340EA030021FA04F37F
:1004400045EA030130BDC4F10C04C4F1200220FAD6
:1004500002F001FA04F340EA0300294630BD21FA14
:1004600004F0294630BD94F0000F83F4801306BFDA
:1004700081F480110134013D4EE77FEA645C18BFCE
:100480007FEA655C29D094EA050F08BF90EA020F65
:1004900005D054EA000C04BF1946104630BD91EA5D
:1004A000030F1EBF0021002030BD5FEA545C05D160
:1004B0004000494128BF41F0004130BD14F580049F
:1004C0003CBF01F5801130BD01F0004545F0FE4113
:1004D00041F470014FF0000030BD7FEA645C1ABF48
:1004E000194610467FEA655C1CBF0B46024650EA7F
:1004F000013406BF52EA033591EA030F41F40021AB
:1005000030BD00BF90F0000F04BF0021704730B530
:100510004FF4806404F132044FF000054FF0000105
:1005200050E700BF90F0000F04BF0021704730B5C6
:100530004FF4806404F1320410F0004548BF40429B
:100540004FF000013EE700BF42004FEAE2014FEAF0
:1005500031014FEA02701FBF12F07F4393F07F4FCB
:1005600081F06051704732F07F4208BF704793F0CE
:100570007F4F04BF41F40021704730B54FF46074E1
:1005800001F0004521F000411CE700BF50EA0102E4
:1005900008BF704730B54FF000050AE050EA01028D
:1005A00008BF704730B511F0004502D5404261EBFD
:1005B00041014FF4806404F132045FEA915C3FF43E
:1005C000D8AE4FF003025FEADC0C18BF03325FEADB
:1005D000DC0C18BF033202EBDC02C2F1200300FA8C
:1005E00003FC20FA02F001FA03FE40EA0E0021FAB1
:1005F00002F11444BDE600BF70B54FF0FF0C4CF49F
:10060000E06C1CEA11541DBF1CEA135594EA0C0F50
:1006100095EA0C0F00F0DEF82C4481EA030621EA8B
:100620004C5123EA4C5350EA013518BF52EA0335C6
:1006300041F4801143F4801338D0A0FB02CE4FF078
:100640000005E1FB02E506F00042E0FB03E54FF0A8
:100650000006E1FB03569CF0000F18BF4EF0010EA0
:10066000A4F1FF04B6F5007F64F5407404D25FEA9C
:100670004E0E6D4146EB060642EAC62141EA55514F
:100680004FEAC52040EA5E504FEACE2EB4F1FD0C91
:1006900088BFBCF5E06F1ED8BEF1004F08BF5FEA0F
:1006A000500E50F1000041EB045170BD06F00046C1
:1006B00046EA010140EA020081EA0301B4EB5C046E
:1006C000C2BFD4EB0C0541EA045170BD41F4801166
:1006D0004FF0000E013C00F3AB8014F1360FDEBF8B
:1006E000002001F0004170BDC4F10004203C35DA67
:1006F0000C341BDC04F11404C4F1200500FA05F3EA
:1007000020FA04F001FA05F240EA020001F000428A
:1007100021F0004110EBD37021FA04F642EB060100
:100720005EEA430E08BF20EAD37070BDC4F10C042A
:10073000C4F1200500FA04F320FA05F001FA04F2EE
:1007400040EA020001F0004110EBD37041F10001DA
:100750005EEA430E08BF20EAD37070BDC4F12005E5
:1007600000FA05F24EEA020E20FA04F301FA05F24D
:1007700043EA020321FA04F001F0004121FA04F2F5
:1007800020EA020000EBD3705EEA430E08BF20EAC5
:10079000D37070BD94F0000F0FD101F000464000FF
:1007A00041EB010111F4801F08BF013CF7D041EA81
:1007B000060195F0000F18BF704703F00046520085
:1007C00043EB030313F4801F08BF013DF7D043EA56
:1007D0000603704794EA0C0F0CEA135518BF95EA0C
:1007E0000C0F0CD050EA410618BF52EA4306D1D193
:1007F00081EA030101F000414FF0000070BD50EAB2
:10080000410606BF1046194652EA430619D094EA3B
:100810000C0F02D150EA013613D195EA0C0F05D125
:1008200052EA03361CBF104619460AD181EA030179
:1008300001F0004141F0FE4141F470014FF0000031
:1008400070BD41F0FE4141F4780170BD70B54FF0CC
:10085000FF0C4CF4E06C1CEA11541DBF1CEA13554C
:1008600094EA0C0F95EA0C0F00F0A7F8A4EB05042E
:1008700081EA030E52EA03354FEA013100F0888025
:100880004FEA03334FF0805545EA131343EA1263EE
:100890004FEA022245EA111545EA10654FEA0026A3
:1008A0000EF000419D4208BF964244F1FD0404F55C
:1008B000407402D25B084FEA3202B61A65EB0305B8
:1008C0005B084FEA32024FF480104FF4002CB6EB75
:1008D000020E75EB030E22BFB61A754640EA0C00F5
:1008E0005B084FEA3202B6EB020E75EB030E22BF35
:1008F000B61A754640EA5C005B084FEA3202B6EB76
:10090000020E75EB030E22BFB61A754640EA9C0034
:100910005B084FEA3202B6EB020E75EB030E22BF04
:10092000B61A754640EADC0055EA060E18D04FEAC2
:10093000051545EA16754FEA06164FEAC30343EA62
:1009400052734FEAC2025FEA1C1CC0D111F4801F2F
:100950000BD141EA00014FF000004FF0004CB6E728
:1009600011F4801F04BF01430020B4F1FD0C88BFC7
:10097000BCF5E06F3FF6AFAEB5EB030C04BFB6EBD2
:10098000020C5FEA500C50F1000041EB045170BDC5
:100990000EF0004E4EEA113114EB5C04C2BFD4EBF2
:1009A0000C0541EA045170BD41F480114FF0000E76
:1009B000013C90E645EA060E8DE60CEA135594EAF2
:1009C0000C0F08BF95EA0C0F3FF43BAF94EA0C0FF5
:1009D0000AD150EA01347FF434AF95EA0C0F7FF46A
:1009E00025AF104619462CE795EA0C0F06D152EABE
:1009F00003353FF4FDAE1046194622E750EA4106A2
:100A000018BF52EA43067FF4C5AE50EA41047FF4B2
:100A10000DAF52EA43057FF4EBAE12E74FF0FF3C17
:100A200006E000BF4FF0010C02E000BF4FF0010CE8
:100A30004DF804CD4FEA410C7FEA6C5C4FEA430C61
:100A400018BF7FEA6C5C1BD001B050EA410C0CBFB0
:100A500052EA430C91EA030F02BF90EA020F002012
:100A6000704710F1000F91EA030F58BF994208BF79
:100A700090422CBFD8176FEAE37040F00100704736
:100A80004FEA410C7FEA6C5C02D150EA013C07D18D
:100A90004FEA430C7FEA6C5CD6D152EA033CD3D0D8
:100AA0005DF8040B704700BF8446104662468C46D2
:100AB0001946634600E000BF01B5FFF7B7FF002805
:100AC00048BF10F1000F01BD4DF808EDFFF7F4FF2E
:100AD0000CBF012000205DF808FB00BF4DF808EDB9
:100AE000FFF7EAFF34BF012000205DF808FB00BFDC
:100AF0004DF808EDFFF7E0FF94BF012000205DF8FE
:100B000008FB00BF4DF808EDFFF7CEFF94BF0120B2
:100B100000205DF808FB00BF4DF808EDFFF7C4FFAB
:100B200034BF012000205DF808FB00BF4FEA410CF4
:100B30007FEA6C5C02D150EA013C0AD14FEA430CD7
:100B40007FEA6C5C02D152EA033C02D14FF0000014
:100B500070474FF0010070474FEA410212F5001252
:100B600015D211D56FF47873B3EB625212D94FEAF4
:100B7000C12343F0004343EA505311F0004F23FADE
:100B800002F018BF404270474FF00000704750EA33
:100B9000013005D111F0004008BF6FF000407047F0
:100BA0004FF00000704700BF4A0011D212F500124A
:100BB00011D20DD56FF47873B3EB62520ED44FEAB5
:100BC000C12343F0004343EA505323FA02F0704735
:100BD0004FF00000704750EA013002D14FF0FF3073
:100BE00070474FF00000704753B94AB9002908BF59
:100BF00000281CBF4FF0FF314FF0FF3000F06EB9FE
:100C0000ADF1080C6DE904CE00F006F8DDF804E063
:100C1000DDE9022304B070472DE9F047089D044642
:100C20008C46002B40F083808A42174647D9B2FA9F
:100C300082F242B1C2F1200024FA00F091409740C4
:100C400040EA010C94404FEA1748230CBCFBF8F62D
:100C50001FFA87FE08FB16C143EA014306FB0EF1AB
:100C6000994209D9FB1806F1FF3080F019819942A9
:100C700040F21681023E3B445B1AA4B2B3FBF8F08B
:100C800008FB103344EA034400FB0EFEA64509D9D5
:100C90003C1900F1FF3380F00581A64540F2028146
:100CA00002383C4440EA0640A4EB0E0400261DB185
:100CB000D4400023C5E900433146BDE8F08702B9BE
:100CC000FFDEB2FA82F2002A50D1CB1B4FEA174E58
:100CD0001FFA87F80126B3FBFEFC210C0EFB1C3328
:100CE00041EA034108FB0CF38B4207D979180CF158
:100CF000FF3002D28B4200F2E9808446C91AA3B2C7
:100D0000B1FBFEF00EFB101143EA014408FB00F8B2
:100D1000A04507D93C1900F1FF3302D2A04500F2EB
:100D2000D9801846A4EB080440EA0C40BFE78B4288
:100D300009D9002D00F0B1800026C5E90001304638
:100D40003146BDE8F087B3FA83F6002E4AD18B42D4
:100D500002D3824200F2B880841A61EB03010120C1
:100D60008C46002DA8D0C5E9004CA5E7C2F12003B0
:100D700020FA03F6974001FA02F04FEA174ED940E5
:100D80003043030CB1FBFEF61FFA87F80EFB161179
:100D900043EA014306FB08F1994204FA02F409D937
:100DA000FB1806F1FF3C80F08D80994240F28A806A
:100DB000023E3B445B1A81B2B3FBFEF00EFB1033E4
:100DC00041EA034100FB08F38B4207D9791800F18F
:100DD000FF3C73D28B4271D902383944CB1A40EAB6
:100DE000064678E7C6F1200C03FA06F422FA0CF363
:100DF0001C4320FA0CF701FA06F34FEA144E21FACD
:100E00000CF11F433B0CB1FBFEF91FFA84F80EFBFB
:100E1000191143EA014109FB08FA8A4502FA06F270
:100E200000FA06F308D9611809F1FF3048D28A4563
:100E300046D9A9F102092144A1EB0A01BFB2B1FBD5
:100E4000FEF00EFB101147EA014700FB08F8B84519
:100E500007D9E71900F1FF312ED2B8452CD9023855
:100E6000274440EA0940A7EB0807A0FB02894F4549
:100E7000C64649461AD317D05DB1B3EB0E0267EBF5
:100E8000010707FA0CFCF2404CEA0202F740C5E900
:100E9000002700263146BDE8F0872E4628460BE79E
:100EA0000646E9E61846FDE64345E5D2B8EB020EF4
:100EB00069EB04010138DFE70846D2E760468DE7B9
:100EC0008146B9E7664675E730464AE7ACF1020C61
:100ED000394413E702383C4424E700BF704700BFA1
:100EE00002460020884220DA10B405E04FF060434B
:100EF0001C700130884215DA145C4FF06043D3F85F
:100F0000803E13F0010FF4D04FF06043D3F8003E61
:100F100013F0010FEDD04FF060431B68002BE5D1BB
:100F200000BFF8E75DF8044B7047704708B5084606
:100F30001146FFF7D5FF08BD2DE9F0478CB000241E
:100F40000794089409940A940B940194484B1A6BE3
:100F500042F010021A631A6B02F010020192019A19
:100F600002941A6B42F004021A631A6B02F0040234
:100F70000292029A03941A6B42F080021A631A6B6F
:100F800002F080020392039A04941A6B42F0010269
:100F90001A631A6B02F001020492049A05941A6B08
:100FA00042F008021A631A6B02F008020592059AD1
:100FB00006941A6B42F002021A631B6B03F00203E1
:100FC0000693069BDFF8B4A022462A21504601F082
:100FD00031FFDFF8AC9022464FF40051484601F053
:100FE00029FFDFF8A08022464FF48061404601F0DF
:100FF00021FF204F22460521384601F01BFF1E4EDF
:1010000022462021304601F015FF2A2307930125AF
:10101000089509940A9407A9504601F025FE4FF45B
:1010200000530793089509940A9407A9484601F0CC
:101030001BFE4FF480630793089509940A9407A94F
:10104000404601F011FE05230793089509940A9480
:1010500007A9384601F008FE202307930895099454
:101060000A9407A9304601F0FFFD0CB0BDE8F087F7
:1010700000380240000C0240000402400010024010
:10108000000802400000024000B58DB0002301932B
:1010900002931548154A0260436083604FF6FF7261
:1010A000C2600361436183610322039204930122BE
:1010B000059206930793089309920A930B9303A949
:1010C00000F08CFD50B900230193029301A906485A
:1010D00000F0CCFE28B90DB05DF804FB02F028FB4F
:1010E000F1E702F025FBF6E79C0300200000014039
:1010F00000B58DB000230193029315484FF0804254
:101100000260436083604FF6FF72C26003618361D7
:1011100003220392049301220592069307930893F6
:1011200009920A930B9303A900F058FD50B90023CC
:101130000193029301A9064800F098FE28B90DB06A
:101140005DF804FB02F0F4FAF1E702F0F1FAF6E7D9
:10115000DC03002000B58DB00023019302931548F5
:10116000154A0260436083604FF6FF72C2600361FC
:10117000836103220392049301220592069307934D
:10118000089309920A930B9303A900F027FD50B925
:1011900000230193029301A9064800F067FE28B9D5
:1011A0000DB05DF804FB02F0C3FAF1E702F0C0FAFB
:1011B000F6E700BF5C0300200004004000B58DB0DE
:1011C0000023019302931548154A0260436083602F
:1011D0004FF6FF72C260036183610322039204939E
:1011E0000122059206930793089309920A930B93A1
:1011F00003A900F0F3FC50B900230193029301A965
:10120000064800F033FE28B90DB05DF804FB02F08B
:101210008FFAF1E702F08CFAF6E700BF1C0300201A
:101220000008004070B590B000230B930C930D9311
:101230000E930F930368804A93420CD0B3F1804F12
:1012400062D07E4A934200F08C807D4A934200F047
:10125000C78010B070BD002401947A4B5A6C42F0E4
:1012600001025A645A6C02F001020192019A02943E
:101270001A6B42F010021A631A6B02F0100202920B
:10128000029A03941A6B42F001021A631B6B03F07B
:1012900001030393039B4FF400630B9302260C9608
:1012A00001250D950E940F950BA9674801F0DCFC04
:1012B0004FF480730B930C960D950E940F950BA91C
:1012C000624801F0D1FC22462146182001F0DEFDE3
:1012D000182001F00FFE22462146192001F0D6FD0C
:1012E000192001F007FE224621461A2001F0CEFD0A
:1012F0001A2001F0FFFD224621461B2001F0C6FD09
:101300001B2001F0F7FDA4E70024049403F50E333D
:101310001A6C42F001021A641A6C02F00102049283
:10132000049A05941A6B42F001021A631B6B03F0D6
:1013300001030593059B48F202030B9302230C93D0
:1013400001230D930E940F930BA9404801F08CFCE0
:10135000224621461C2001F099FD1C2001F0CAFD07
:1013600077E700240694374B1A6C42F002021A64A5
:101370001A6C02F002020692069A07941A6B42F067
:1013800001021A631A6B02F001020792079A08948D
:101390001A6B42F002021A631B6B03F002030893FC
:1013A000089B80230B9302250C9501260D960E9425
:1013B0000F950BA9254801F057FC10230B930C95B2
:1013C0000D960E940F950BA9214801F04DFC224675
:1013D00021461D2001F05AFD1D2001F08BFD38E74C
:1013E00000240994174B1A6C42F004021A641A6C18
:1013F00002F004020992099A0A941A6B42F002025E
:101400001A631B6B03F002030A930A9BC0230B931E
:1014100002230C9301220D920E940F930BA90C48FA
:1014200001F022FC224621461E2001F02FFD1E2045
:1014300001F060FD0DE700BF000001400004004026
:101440000008004000380240001002400000024046
:101450000004024002680E4B9A4200D0704700B56B
:1014600083B00021019103F59A335A6C42F00202D5
:101470005A645B6C03F002030193019B0A462C2023
:1014800001F004FD2C2001F035FD03B05DF804FBF4
:101490000004014000B587B0002301930293039339
:1014A00004930593026803F1804303F582339A4263
:1014B00002D007B05DF804FB002300930B4A116BC8
:1014C00041F004011163126B02F004020092009AD1
:1014D0004FF4707201920222029203930493032349
:1014E000059301A9024801F0BFFBE2E70038024082
:1014F0000008024030B593B0002410941194099470
:101500000A940B940C940D940E940F9420252A4663
:10151000214601A802F044F93048314B0360446091
:10152000856042F60313C36004614461846100F086
:101530003BFB00283CD100231093119310A92748AE
:1015400000F094FC002836D16023099300220A920F
:101550000B920C920D920E920F9209A91F4800F067
:10156000C3FB58BB042209A91C4800F0BDFB40BBCB
:10157000082209A9194800F0B7FB28BB0C2209A9C9
:10158000164800F0B1FB10BB0023019302930393B4
:10159000049305934FF400520692089301A90F4853
:1015A00000F087FCB0B90D48FFF774FF13B030BDF1
:1015B00002F0BEF8BFE702F0BBF8C5E702F0B8F8EA
:1015C000D0E702F0B5F8D3E702F0B2F8D6E702F0C0
:1015D000AFF8D9E702F0ACF8E5E700BFDC02002085
:1015E0000004014008B50A480A4B03604FF4E13398
:1015F000436000238360C36003610C224261836106
:10160000C36100F091FE00B908BD02F091F8FBE75C
:101610001C040020004C004008B50A480A4B036037
:101620004FF4E133436000238360C36003610C2205
:1016300042618361C36100F077FE00B908BD02F02A
:1016400077F8FBE75C0400200044004010B58AB046
:1016500000230593069307930893099303682D4A83
:10166000934204D02C4A934227D00AB010BD0021E7
:1016700001912A4B1A6C42F400221A641A6C02F48B
:1016800000220192019A02911A6B42F004021A633D
:101690001B6B03F004030293029B4FF4406305931A
:1016A0000223069301230793032308930823099336
:1016B00005A91B4801F0D8FAD7E700240394174B7B
:1016C0001A6C42F400321A641A6C02F4003203926B
:1016D000039A04941A6B42F008021A631B6B03F01E
:1016E00008030493049B60230593022306930123BC
:1016F0000793032308930723099305A9094801F0D9
:10170000B3FA22462146262001F0C0FB262001F034
:10171000F1FBAAE7004C00400044004000380240C2
:1017200000080240000C02407047FEE7FEE7FEE7BB
:10173000FEE770477047704708B501F03FFC08BDF1
:1017400008B5024800F00FF908BD00BF9C03002057
:1017500008B5024800F007F908BD00BF9C0300204F
:1017600008B5024800F0FFF808BD00BF9C03002048
:1017700008B5024800F0F7F808BD00BF9C03002040
:1017800008B5024800F0EFF808BD00BFDC030020F8
:1017900008B5024800F0E7F808BD00BF5C03002070
:1017A00008B5024800F0DFF808BD00BF1C030020A8
:1017B00008B5024800F0BAFE08BD00BF5C04002076
:1017C00008B5024800F0CFF808BD00BFDC020020D9
:1017D00000B583B0002100910C4B5A6C42F480425A
:1017E0005A645A6C02F480420092009A01911A6C79
:1017F00042F080521A641B6C03F080530193019BEA
:10180000072001F031FB03B05DF804FB0038024013
:1018100030B4036A23F001030362056A42688469F5
:1018200024F073040B681C4325F002058B682B43DE
:10183000104DA84203D005F58065A84205D123F0DC
:101840000803CD682B4323F004030A4DA84203D0BC
:1018500005F58065A84205D122F440724D69154313
:101860008A692A43426084614A684263036230BCE9
:10187000704700BF0000014030B4036A23F4807356
:101880000362036A4268C46924F073040D682C4340
:1018900023F400738D6843EA0523124DA84203D058
:1018A00005F58065A84206D123F40063CD6843EABC
:1018B000052323F480630B4DA84203D005F5806512
:1018C000A84207D122F440524D6942EA05128D69BF
:1018D00042EA05124260C4614A68C263036230BCD6
:1018E000704700BF0000014030B4036A23F4805306
:1018F0000362036A4468C26922F4E6420D6842EA60
:10190000052223F400538D6843EA0533094DA842AC
:1019100003D005F58065A84204D124F480444D69C4
:1019200044EA85144460C2614A680264036230BCC0
:10193000704700BF00000140022380F83D3002687C
:10194000936803F00703062B03D0136843F00103E9
:101950001360012380F83D300020704770477047C6
:1019600070477047704710B5044603681A6912F053
:10197000020F11D0DA6812F0020F0DD06FF00202E0
:101980001A610123037703689B6913F0030F70D07A
:10199000FFF7E6FF0023237723681A6912F0040F8C
:1019A00012D0DA6812F0040F0ED06FF004021A6140
:1019B0000223237723689B6913F4407F5FD020467E
:1019C000FFF7CEFF0023237723681A6912F0080F70
:1019D00012D0DA6812F0080F0ED06FF008021A6108
:1019E000042323772368DB6913F0030F4ED02046CE
:1019F000FFF7B6FF0023237723681A6912F0100F50
:101A000012D0DA6812F0100F0ED06FF010021A61C7
:101A1000082323772368DB6913F4407F3DD02046F9
:101A2000FFF79EFF0023237723681A6912F0010F46
:101A300003D0DA6812F0010F36D123681A6912F068
:101A4000800F03D0DA6812F0800F34D123681A694E
:101A500012F0400F03D0DA6812F0400F32D1236841
:101A60001A6912F0200F03D0DA6812F0200F30D17B
:101A700010BDFFF774FF2046FFF773FF8AE720468B
:101A8000FFF76DFF2046FFF76CFF9BE72046FFF74F
:101A900066FF2046FFF765FFACE72046FFF75FFFD4
:101AA0002046FFF75EFFBDE76FF001021A61204696
:101AB000FFF754FFC1E76FF080021A61204600F083
:101AC00022FAC3E76FF040021A612046FFF74AFF8F
:101AD000C5E76FF020021A61204600F013FAC7E74D
:101AE0000368304A904212D0B0F1804F0FD0A2F577
:101AF0007C4290420BD002F58062904207D002F502
:101B00008062904203D002F57842904203D123F0E4
:101B100070034A681343234A90422AD0B0F1804FA1
:101B200027D0A2F57C42904223D002F580629042F9
:101B30001FD002F5806290421BD002F5784290429D
:101B400017D002F57052904213D002F58062904295
:101B50000FD002F5806290420BD0A2F598329042ED
:101B600007D002F58062904203D002F58062904275
:101B700003D123F44073CA68134323F080034A69F6
:101B8000134303608B68C3620B688362054B984202
:101B900003D003F58063984201D10B6903630123ED
:101BA0004361704700000140B0B110B5044690F8A1
:101BB0003D3063B1022384F83D30214651F8040BD7
:101BC000FFF78EFF012384F83D30002010BD80F820
:101BD0003C30FFF73FFCEDE701207047002849D07B
:101BE000F8B50C46054690F83D30002B3DD0022359
:101BF00085F83D302A68936823F4804323F0070377
:101C00009360294651F8040BFFF76AFF29688A6838
:101C10008E690F6A2068104326F4407626F003068A
:101C2000A268A36942EA0323334323F47C4323F0ED
:101C3000FC03E668E26946EA02261E43226A1303B1
:101C4000226943EA0213334327F0AA0762686469F2
:101C500042EA04123A43886029688B612B681A6251
:101C6000012385F83D300020F8BD80F83C30FFF7B7
:101C7000D9FABCE70120704730B4036A23F010039F
:101C80000362036A4468826922F4E6420D6842EA0C
:101C9000052223F020038D6843EA0513114DA84265
:101CA00003D005F58065A84206D123F08003CD68F6
:101CB00043EA051323F040030A4DA84203D005F57B
:101CC0008065A84207D124F440644D6944EA850444
:101CD0008D6944EA8504446082614A6882630362D4
:101CE00030BC70470000014038B590F83C30012B03
:101CF00066D004460D46012380F83C30022380F86C
:101D00003D300C2A1AD8DFE802F0071919192019FA
:101D100019193419191947000068FFF779FD22686D
:101D2000936943F0080393612268936923F00403E5
:101D300093612268936929690B439361012384F8B5
:101D40003D30002084F83C0038BD0068FFF794FF68
:101D50002268936943F4006393612268936923F4D2
:101D60008063936122689369296943EA012393613F
:101D7000E4E70068FFF780FD2268D36943F00803B9
:101D8000D3612268D36923F00403D3612268D36945
:101D900029690B43D361D1E70068FFF7A5FD2268ED
:101DA000D36943F40063D3612268D36923F4806369
:101DB000D3612268D369296943EA0123D361BDE76E
:101DC0000220C1E710B401F01F01012303FA01F45E
:101DD000036A23EA04030362036A02FA01F10B4374
:101DE00003625DF8044B704710B504460122006899
:101DF000FFF7E8FF23680B4A934203D002F58062A5
:101E0000934203D15A6C42F400425A6422689368A8
:101E100003F00703062B03D0136843F0010313609C
:101E2000002010BD0000014010B5044661B1042936
:101E300016D0012200210068FFF7C4FF012204210F
:101E40002068FFF7BFFF04E0012200210068FFF7D0
:101E5000B9FF2268136843F001031360002010BD2E
:101E6000012204210068FFF7ADFFF2E790F83C3053
:101E7000012B1CD070B4012680F83C60022380F84E
:101E80003D3002685568936825F070050C682C4356
:101E900023F080054B682B4354600268936080F800
:101EA0003D60002380F83C30184670BC704702202B
:101EB000704790F83C30012B22D0012380F83C3051
:101EC000CB6823F440738A68134323F480634A6821
:101ED000134323F400630A68134323F480530A690D
:101EE000134323F400534A69134323F48043CA691C
:101EF000134302685364002380F83C30184670474F
:101F000002207047704770470268D36823F49073CB
:101F1000D3600268536923F001035361202380F8E2
:101F20003A30704790F83930DBB2212B01D00220D3
:101F300070478368B3F5805F17D0036A5A1C02624A
:101F40001A7803685A60C38C9BB2013B9BB2C3846E
:101F50004BB90268D36823F08003D3600268D3686A
:101F600043F04003D36000207047036A1B88026877
:101F7000C3F30803536003691BB9036A02330362A6
:101F8000E1E7036A01330362DDE700002DE9F8436E
:101F900004460268136923F44053C1680B4313617C
:101FA00083680269134342691343C2691A43016893
:101FB000CB6823F4164323F00C031343CB60026871
:101FC000536923F4407381690B435361C369B3F5CB
:101FD000004F60D00368B84A934200F0148102F5C4
:101FE0008062934200F00F8100F01EFE00EB800043
:101FF00000EB80006568AD00B0FBF5F5AF4EA6FBC9
:1020000005356D092F0100F00FFE00EB800505EB93
:10201000850563689B00B5FBF3F900F005FE00EB56
:10202000800000EB80006568AD00B0FBF5F5A6FB15
:1020300005356D094FF0640808FB15952D01323503
:10204000A6FB05356D0905F0F0053D4400F0ECFDFB
:1020500000EB800000EB80006768BF00B0FBF7F783
:1020600000F0E2FD00EB800000EB800063689B0065
:10207000B0FBF3F0A6FB0030400908FB10784FEAF4
:10208000081808F13208A6FB0836C6F34316236881
:102090002E449E600DE10368874A93425BD002F5AF
:1020A0008062934257D000F0BFFD00EB800000EB50
:1020B000800065686D00B0FBF5F5804EA6FB053528
:1020C0006D092F0100F0B0FD00EB800000EB8000F7
:1020D00065686D00B0FBF5F900F0A6FD00EB80002F
:1020E00000EB800065686D00B0FBF5F5A6FB0535DB
:1020F0006D094FF0640808FB1595ED003235A6FB1D
:1021000005356D096D0005F4F8753D4400F08CFD52
:1021100000EB800000EB800067687F00B0FBF7F702
:1021200000F082FD00EB800000EB800063685B0044
:10213000B0FBF3F3A6FB03235B0908FB13784FEA1C
:10214000C80808F13208A6FB0836C6F34216236811
:102150002E449E60ADE000F077FD00EB800000EBC8
:10216000800065686D00B0FBF5F5544EA6FB0535A3
:102170006D092F0100F068FD00EB800000EB80008E
:1021800065686D00B0FBF5F900F05EFD00EB8000C6
:1021900000EB800065686D00B0FBF5F5A6FB05352A
:1021A0006D094FF0640808FB1595ED003235A6FB6C
:1021B00005356D096D0005F4F8753D4400F044FDEA
:1021C00000EB800000EB800067687F00B0FBF7F752
:1021D00000F03AFD00EB800000EB800063685B00DC
:1021E000B0FBF3F3A6FB03235B0908FB13784FEA6C
:1021F000C80808F13208A6FB0836C6F34216236861
:102200002E449E6055E000F01FFD00EB800000EBC7
:1022100080006568AD00B0FBF5F5284EA6FB0535DE
:102220006D092F0100F010FD00EB800505EB850521
:1022300063689B00B5FBF3F900F006FD00EB80003E
:1022400000EB80006568AD00B0FBF5F5A6FB053539
:102250006D094FF0640808FB15952D013235A6FB7A
:1022600005356D0905F0F0053D4400F0EDFC00EB8F
:10227000800000EB80006768BF00B0FBF7F700F05C
:10228000E3FC00EB800000EB800063689B00B0FB88
:10229000F3F0A6FB0030400908FB10784FEA08185D
:1022A00008F13208A6FB0836C6F3431623682E440D
:1022B0009E60BDE8F88300BF001001401F85EB5110
:1022C0002DE9F84305460F4616469946DDF820806D
:1022D0002C68246837EA04030CBF01240024B442AC
:1022E0001FD1B8F1FF3FF3D0B8F1000F05D000F0D7
:1022F00071FEA0EB09004045EAD92A68D36823F4AF
:10230000D073D3602A68536923F0010353612023FB
:1023100085F8393085F83A30002385F838300320C5
:1023200000E00020BDE8F88358B310B5044690F8EB
:1023300039300BB3242384F839302268D36823F46E
:102340000053D3602046FFF721FE2268136923F46F
:10235000904313612268536923F02A035361226872
:10236000D36843F40053D3600020E063202384F853
:10237000393084F83A3010BD80F83830FFF766F90C
:10238000D8E7012070472DE9F04182B01E4690F851
:102390003A30DBB2202B5BD104460D469046002933
:1023A0005AD0002A5AD090F83830012B58D0012347
:1023B00080F838300023C363222380F83A3000F0DD
:1023C00009FE0746A4F82C80A4F82E801DE0009694
:1023D0003B46002220212046FFF772FF002841D112
:1023E000236933B923685B68C3F3080325F8023B0C
:1023F0000BE023685B68DBB225F8013B05E023684E
:102400005B6803F07F0305F8013BE38D9BB2C3B12A
:10241000E28D92B2013A92B2E285A368B3F5805F91
:10242000D5D000963B46002220212046FFF748FFEA
:10243000D0B92369002BE2D123685B6805F8013B22
:10244000E3E7202384F83A30002084F8380000E0E5
:10245000022002B0BDE8F0810120FAE70120F8E790
:102460000220F6E70320F4E70320F2E7704708B5FF
:102470000168CA6822F04002CA60202280F8392030
:10248000FFF7F4FF002008BD704708B590F83A3018
:10249000DBB2222B46D18368B3F5805F0FD003698E
:1024A0000BBB03685A68836A591C81621A70C38D1A
:1024B0009BB2013B9BB2C385F3B1002008BD826A89
:1024C000036943B903685B68C3F308031380836A35
:1024D00002338362EBE703685B68DBB21380836AD5
:1024E00001338362E3E703685B68826A511C81629F
:1024F00003F07F031370DAE70268D36823F0200348
:10250000D3600268D36823F48073D3600268536990
:1025100023F001035361202380F83A30FFF7B4FF22
:102520000020CBE70220C9E77047000010B5044641
:1025300002681368D168526913F00F0005D113F0D7
:10254000200F02D011F0200F13D128B112F0010298
:1025500013D111F4907F10D113F0800F02D011F03D
:10256000800F69D113F0400F02D011F0400F67D1F6
:1025700010BD2046FFF789FFFAE713F0010F06D0E0
:1025800011F4807F03D0E06B40F00100E06313F0B2
:10259000040F04D01AB1E06B40F00200E06313F0C6
:1025A000020F04D01AB1E06B40F00400E06313F0B6
:1025B000080F04D01AB1E26B42F00802E263E26B4A
:1025C000002AD5D013F0200F02D011F0200F21D116
:1025D00023685B6903F04003E26B12F0080F00D13F
:1025E00023B32046FFF790FC23685A6912F0400F8E
:1025F00018D05A6922F040025A61636B73B1124AD3
:102600001A65606B00F01CFC0028B1D0606B036D94
:102610009847ADE72046FFF738FFD9E72046FFF798
:1026200083FFA5E72046FFF77FFFA1E72046FFF7DE
:102630007BFF0023E3639BE72046FFF773FC97E7EC
:102640002046FFF714FF93E74D26000808B5806B7E
:102650000023C385C384FFF767FF08BD002800F08F
:10266000B98170B582B00446036813F0010F3BD006
:10267000A64B9B6803F00C03042B2CD0A34B9B6848
:1026800003F00C03082B21D06368B3F5803F4FD0D3
:10269000B3F5A02F52D09D4B1A6822F480321A60F5
:1026A0001A6822F480221A606368002B50D000F070
:1026B00091FC0546954B1B6813F4003F14D100F0C4
:1026C00089FC401B6428F5D903208AE18F4B5B68A5
:1026D00013F4800FD8D08D4B1B6813F4003F03D048
:1026E0006368002B00F07881236813F0020F54D048
:1026F000864B9B6813F00C0F3ED0844B9B6803F015
:102700000C03082B33D0E368002B67D0804B0122E9
:102710001A6000F05FFC05467C4B1B6813F0020F4B
:1027200053D100F057FC401B0228F5D9032058E193
:10273000764A136843F480331360B5E7734B1A6825
:1027400042F480221A601A6842F480321A60ABE7C1
:1027500000F040FC05466D4B1B6813F4003FC3D0EE
:1027600000F038FC401B6428F5D9032039E1674BA1
:102770005B6813F4800FC6D1644B1B6813F0020F23
:1027800003D0E368012B40F02981604A136823F0ED
:10279000F803216943EAC1031360236813F0080FAB
:1027A00040D0636963B35B4B01221A6000F012FCF6
:1027B0000546564B5B6F13F0020F33D100F00AFC55
:1027C000401B0228F5D903200BE1504A136823F07F
:1027D000F803216943EAC1031360DEE74C4B002292
:1027E0001A6000F0F7FB0546484B1B6813F0020F18
:1027F000D3D000F0EFFB401B0228F5D90320F0E016
:10280000444B00221A6000F0E5FB05463F4B5B6F2E
:1028100013F0020F06D000F0DDFB401B0228F5D9B3
:102820000320DEE0236813F0040F78D0374B1B6CD5
:1028300013F0805F0DD100230193344B1A6C42F0EA
:1028400080521A641B6C03F080530193019B012595
:1028500000E00025304B1B6813F4807F21D0A36873
:10286000012B32D0052B36D0284B1A6F22F00102F3
:102870001A671A6F22F004021A67A368002B34D07B
:1028800000F0A8FB0646214B1B6F13F0020F45D149
:1028900000F0A0FB801B41F288339842F3D903205B
:1028A0009FE01D4A136843F48073136000F092FBAD
:1028B0000646194B1B6813F4807FD0D100F08AFBC9
:1028C000801B0228F5D903208BE0104A136F43F0D8
:1028D00001031367D1E70D4B1A6F42F004021A6728
:1028E0001A6F42F001021A67C7E700F073FB064651
:1028F000064B1B6F13F0020F10D000F06BFB801B18
:1029000041F288339842F3D903206AE0003802404C
:1029100000004742800E474200700040E5B9A369BD
:10292000002B5DD0314A926802F00C02082A5AD07E
:10293000022B17D02E4B00221A6000F04BFB0446EE
:102940002A4B1B6813F0007F42D000F043FB001BB2
:102950000228F5D9032044E0244A136C23F0805365
:102960001364DCE7224B00221A6000F033FB0546BB
:102970001E4B1B6813F0007F06D000F02BFB401BA2
:102980000228F5D903202CE0E369226A1343626A26
:1029900043EA8213A26A5208013A43EA0243E26A16
:1029A00043EA0263114A5360114B01221A6000F09E
:1029B00011FB04460D4B1B6813F0007F06D100F09D
:1029C00009FB001B0228F5D903200AE0002008E0DB
:1029D000002006E001207047012002E0012000E015
:1029E000002002B070BD0120FBE700BF00380240AC
:1029F00060004742F8B52F4B9B6803F00C03042B93
:102A000053D0082B53D12B4B5A6802F03F025B681E
:102A100013F4800F28D0274B5B68C3F38813580149
:102A20000021C01A61F100018E0146EA906687011B
:102A30003C1A66EB0105E90041EA5471E000C01858
:102A400041F100014B0243EAD053440220461946AB
:102A50000023FEF7C9F8174B5B68C3F3014301334A
:102A60005B00B0FBF3F023E0124B5B68C3F3881309
:102A70005C010025E41A65F10005AE0146EA9466A2
:102A8000A701381B66EB0501CC0044EA5074C50071
:102A9000E81844F100018B0243EA90538402204677
:102AA00019460023FEF7A0F8D5E7034800E00348E5
:102AB000F8BD00BF0038024000127A000024F40084
:102AC000002800F09A8070B50D4604464F4B1B68F5
:102AD00003F00F038B4208D2CBB24C4A1370136839
:102AE00003F00F038B4240F08A80236813F0020F3B
:102AF00017D013F0040F04D0454A936843F4E05311
:102B00009360236813F0080F04D0414A936843F49C
:102B1000604393603E4A936823F0F003A1680B433F
:102B20009360236813F0010F32D06368012B21D02A
:102B30009A1E012A25D9364A126812F0020F60D077
:102B400033498A6822F0030213438B6000F042FA93
:102B500006462F4B9B6803F00C036268B3EB820FB1
:102B600016D000F037FA801B41F288339842F0D932
:102B7000032041E0264A126812F4003FE0D1012010
:102B80003AE0234A126812F0007FD9D1012033E0E5
:102B90001E4B1B6803F00F03AB4207D9EAB21B4B75
:102BA0001A701B6803F00F03AB422CD1236813F09B
:102BB000040F06D0164A936823F4E053E1680B43F0
:102BC0009360236813F0080F07D0114A936823F429
:102BD0006043216943EAC1039360FFF70BFF0C4B8D
:102BE0009B68C3F303130B4AD35CD8400A4B1860AD
:102BF000002000F0A3F9002070BD012070470120E3
:102C0000FAE70120F8E70120F6E700BF003C0240A8
:102C100000380240606200080C000020014B186878
:102C2000704700BF0C00002008B5FFF7F7FF044B0A
:102C30009B68C3F38223034AD35CD84008BD00BF1E
:102C4000003802407062000808B5FFF7E7FF044B48
:102C50009B68C3F34233034AD35CD84008BD00BF2E
:102C6000003802407062000800230F2B00F2D98068
:102C7000F0B482B039E0072200E00022B2403A43CB
:102C80000234684E46F82420674A1468EA4324EA6E
:102C900005064F6817F4803F01D045EA0406624CF0
:102CA0002660646802EA04064F6817F4003F01D00A
:102CB00045EA04065C4C6660A46802EA04064F68B4
:102CC00017F4801F01D045EA0406574CA660E4685B
:102CD00022404E6816F4001F01D045EA0402524C0F
:102CE000E26001330F2B00F2998001229A400C68B8
:102CF00004EA020532EA0404F3D14C68022C01D044
:102D0000122C10D1DE08083650F826C003F0070454
:102D1000A7000F24BC402CEA040C0C69BC4044EA18
:102D20000C0440F82640D0F800C05E000324B440F4
:102D3000E7432CEA040C4C6804F00304B44044EA72
:102D40000C0404604C6804F1FF3CBCF1010F03D992
:102D5000112C01D0122C10D1846807EA040CCC6825
:102D6000B44044EA0C048460446824EA02024C68DB
:102D7000C4F300149C4014434460C26817408A683E
:102D8000B2403A43C2604A6812F0805FA9D0002284
:102D90000192264A546C44F480445464526C02F408
:102DA00080420192019A9C08A61C1E4A52F8267085
:102DB00003F0030296000F22B24027EA02071C4AE2
:102DC00090423FF45AAF02F5806290421AD002F569
:102DD0008062904218D002F58062904216D002F5CF
:102DE0008062904214D002F58062904212D002F5C7
:102DF0008062904210D002F5806290423FF43BAF77
:102E000008223BE7012239E7022237E7032235E7B0
:102E1000042233E7052231E706222FE702B0F0BC97
:102E20007047704700380140003C014000380240C4
:102E3000000002400AB18161704709048161704756
:102E400090F83530DBB2022B03D08023436501209C
:102E50007047052380F835300268136823F00103BA
:102E60001360002070470000074AD36823F4E06332
:102E70001B041B0C000200F4E060034343F0BF633B
:102E800043F40033D360704700ED00E030B4174BDB
:102E9000DB68C3F30223C3F10704042C28BF042416
:102EA0001D1D062D18D9033B4FF0FF3505FA04F41C
:102EB00021EA0401994005FA03F322EA03031943C6
:102EC00000280BDB0901C9B200F1604000F5614048
:102ED00080F8001330BC70470023E5E700F00F00D6
:102EE0000901C9B2024B1954F4E700BF00ED00E03C
:102EF00014ED00E0002807DB00F01F024009012369
:102F00009340024A42F82030704700BF00E100E0E1
:102F10000138B0F1807F0AD2064B5860064AF02192
:102F200082F823100020986007221A607047012061
:102F3000704700BF10E000E000ED00E010B504466F
:102F40000E4B18784FF47A73B3FBF0F30C4A106809
:102F5000B0FBF3F0FFF7DCFF68B90F2C01D90120BB
:102F60000AE0002221464FF0FF30FFF78FFF054BAC
:102F70001C60002000E0012010BD00BF0400002004
:102F80000C0000200800002008B50B4B1A6842F422
:102F900000721A601A6842F480621A601A6842F479
:102FA00080721A600320FFF75FFF0020FFF7C6FF63
:102FB000FEF70EFC002008BD003C0240034A1168E9
:102FC000034B1B780B441360704700BF9C04002028
:102FD00004000020014B1868704700BF9C040020CB
:102FE0000F49D1F8883043F47003C1F888300D4B95
:102FF0001A6842F001021A60002098601A6822F0F4
:10300000847222F480321A60074A5A601A6822F4E5
:1030100080221A60D8604FF000638B60704700BF59
:1030200000ED00E00038024010300024DFF834D01A
:10303000002103E00C4B5B58435004310B480C4B10
:1030400042189A42F6D30B4A02E0002342F8043BAE
:10305000094B9A42F9D3FFF7C3FF00F07DFB00F064
:103060004DFB704700000220D066000800000020E1
:10307000E4010020E4010020B0040020FEE700008D
:10308000012800D0704708B54FF6FF73994200D071
:1030900008BDFFF79FFF014B1860F9E70C02002005
:1030A00030B52DED028B91B06C46254D0FCD0FC480
:1030B0000FCD0FC495E80F0084E80F00002431E025
:1030C000204B03EB8203D3ED007A04EB440313445B
:1030D00010A901EB830313ED107A27EE877A01EB39
:1030E000840353ED047A77EE877A43ED047A013254
:1030F000022AE5DDA50010AB03EB840313ED048A7F
:10310000DFED117A68EE277AFDEEE77A17EE901A76
:103110000E4800F0B7FFB0EE480A0D48284400F012
:1031200061F90134032C07DC002210AB03EB8403AC
:1031300043F8102C0022DBE711B0BDEC028B30BD50
:1031400030620008000200200000C84278620008D7
:103150009002002000B583B00A2301220DF107017F
:103160005448FFF710F910B103B05DF804FB9DF867
:103170000710514800F086FF9DF80730423B112BA5
:1031800000F29180DFE803F02D8F8F8F095E6D7E56
:103190004F8F358F8F8F8F8F4149484B00221A6098
:1031A0004749D1ED007AF1EE677AC3ED017A9A6072
:1031B000424BD3ED007A93ED017AD3ED026AFDEE36
:1031C000E66A16EE903ABDEEC77A17EE102AFDEECB
:1031D000E77A17EE901A3B4800F054FFFFF760FFC4
:1031E000C2E7364B00221A603549096859609A6077
:1031F000DEE7334BD3ED007AF1EE677A2F4BC3ED68
:10320000007A00225A609A60D2E72C4B2C4A12684E
:103210001A6000225A609A60CAE7284B00221A609E
:103220005A609A60C4E7264B93ED007AF6EE007A76
:1032300067EEC77A214BC3ED007AC3ED017A002215
:103240009A60B5E71E4BD3ED007AB6EE007A67EED2
:10325000877A1A4BC3ED007AC3ED017A00229A6097
:10326000A6E7174BD3ED007AB6EE007A67EE877AC1
:10327000124BC3ED007AF1EE677AC3ED017A0022BA
:103280009A6095E70E4BD3ED007AB6EE007A67EEC2
:10329000877AB1EE677A094B83ED007AC3ED017A44
:1032A00000229A6084E7054B00221A605A609A60F7
:1032B0007EE700BF5C0400207C6200080002002062
:1032C000100000208462000808B54FF6FF7101204D
:1032D000FFF7D6FE08BD0000034B93FBF0F080B271
:1032E000013880B2704700BF00BD010570B50646C9
:1032F0000D4614464FF4FA50FFF7EEFF04FB00F2C0
:103300000D4B83FB02131344D217C2EBE3321DB9FA
:10331000336892B25A6370BD042D05D0082D07D0D2
:10332000336892B21A64F6E7336892B29A63F2E7AE
:10333000336892B2DA63EEE70180008008B50A468E
:10334000C1698069FFF7D2FF08BD000000000000DE
:10335000F8B5044610EE105A0068FDF7F5F802467D
:103360000B460BA1D1E90001FDF770FA06460F46A6
:103370002846FDF7E9F802460B4630463946FDF788
:103380003BF9FDF711FC81B22046FFF7D7FFF8BDEE
:1033900000000000E0FFEF4010B5044661B10129D4
:1033A00015D0002281898068FFF744FD0022A18AA0
:1033B0002069FFF73FFD10BD012281898068FFF77A
:1033C00039FD0022A18A2069FFF734FDF3E70022CE
:1033D00081898068FFF72EFD0122A18A2069FFF70D
:1033E00029FDE8E710B52DED028B0446006890ED4D
:1033F000008AB4EEC08AF1EE10FA08D4B1EE488A21
:10340000B4EEC08AF1EE10FA01DCB0EE408AD0EDE5
:10341000017AB1EE677AB4EEC87AF1EE10FA0FDCF9
:10342000F4EEC87AF1EE10FA13D50121FFF7B4FFDC
:10343000B0EEC80A2068FFF78BFFBDEC028B10BD11
:103440000021FFF7A9FFB0EEC80A2068FFF780FF50
:10345000F3E70221FFF7A0FF9FED020A2068FFF7C4
:1034600077FFEAE700000000034B00E0043B034A5B
:103470009342FBD1704700BFA002002090020020C1
:10348000F8B52E4C2E48A061DFF8CCC0C4F808C0B7
:103490000123A3812B4921612026A6820025E56115
:1034A000294A22604FF07E536360A063274FA762D2
:1034B0004FF48067A78507F1804707F5003727633A
:1034C000A6860427E76322626362A065A1640826DA
:1034D000A4F84C60C4F850C0A4F85470E6652264A7
:1034E0006364A0671A4EA6664FF40056A4F86C6099
:1034F00021670221A4F874100C21E167226663663B
:10350000FEF71AFAE169A069FEF76EFCE16BA06BA9
:10351000FEF76AFCE16DA06DFEF766FCE16FA06F3F
:10352000FEF762FC2B4606E0044A02EB431209490F
:1035300041F823200133032BF6DDF8BD10020020F3
:10354000DC0200200010024000008C42000002401B
:103550000008024090020020000C0240012800D028
:10356000704708B54FF6FF73994200D008BD03239A
:10357000064A03E0002142F8041B013B002BF9DA64
:10358000034A0449002000F0D4F8EFE7900200203D
:10359000000000206934000808B5FFF771FF00F053
:1035A00035F808BD08B54FF6FF710120FFF7D6FFCB
:1035B00008BD0000034B00E00C3B034A9342FBD1E3
:1035C000704700BFD0020020A0020020012800D0D8
:1035D000704708B54FF6FF73994200D008BD03222B
:1035E000074B05E000215960002119810C33013A95
:1035F000002AF7DA034A0449002000F09AF8EDE7C0
:10360000A002002000000020B535000810B50C4CC9
:103610000C4820600C4BE3600C4BA3610C4B6362C5
:103620003C21FEF701FC3C21E068FEF7FDFB3C215C
:10363000A069FEF7F9FB3C21606AFEF7F5FB10BDBF
:10364000A00200209C030020DC0300205C0300207B
:103650001C03002008B54FF6FF710120FFF7B6FFED
:1036600008BD000030B595B03022002108A800F058
:1036700097F8002403940494059406940794019405
:103680001C4B1A6C42F080521A641B6C03F080537E
:103690000193019B0294184B1A6842F480421A600D
:1036A0001B6803F480430293029B012308934FF4A9
:1036B0008033099302250E954FF480030F9308235E
:1036C00010934FF4A873119312950723139308A82E
:1036D000FEF7C4FF0F230393049505944FF4A05302
:1036E00006934FF480530793052103A8FFF7E8F9E9
:1036F00015B030BD003802400070004008B5FFF73B
:1037000043FCFFF7AFFFFDF717FCFDF7BDFCFDF72E
:10371000EFFCFDF71FFDFDF751FDFDF7EBFEFDF79B
:1037200061FFFDF779FFFFF737FFFFF713FDFCE7B8
:1037300070470B460146184600F000B810B5054C1E
:1037400013462CB10A4601460220AFF3008010BD9B
:103750002046FCE70000000070B50D4D0D4C641BC9
:10376000A4100026A64209D10B4D0C4C02F052FDCC
:10377000641BA4100026A64205D170BD55F8043B79
:1037800098470136EEE755F8043B98470136F2E7D3
:10379000BC660008BC660008BC660008CC66000871
:1037A00002440346934200D1704703F8011BF9E736
:1037B0002DE9FF4755EC104B002D0E4619462B46C0
:1037C000BBBF05F100431D4600232D230B700D9B4D
:1037D000DDF830A0914623F02008BCBF22461446F5
:1037E000B8F1460F05D0B8F1450F00D101360221DE
:1037F00000E0032103AB019302AB009345EC104BB7
:103800005346324600F0E4FCB8F1470F074602D1B8
:1038100019F0010F22D0B8F1460F07EB060910D1BD
:103820003B78302B0AD10022002320462946FDF7A1
:103830004BF918B9C6F10106CAF80060DAF8003091
:1038400099440022002320462946FDF73DF908B19E
:10385000CDF80C903022039B4B4507D3039B0E9A67
:10386000DB1B3846136004B0BDE8F087591C039198
:103870001A70F0E7F7B503460029B8BF494203F8CC
:10388000022BB4BF2D222B22092942702ADD0DF113
:103890000704A4460A27A6460A4691FBF7F607FB4B
:1038A00016153035632A04F1FF340EF8015C3146F9
:1038B000F1DC3031AEF1020504F8011C441C29464C
:1038C00061450AD30DF10902A2EB0E02654588BFDE
:1038D00000221344181A03B0F0BD11F8012B04F8AC
:1038E000012FEDE7302330318370C170031DF1E704
:1038F0002DE9F04F2DED028B8DB00C46DDF8608088
:1039000016461F46054601F045FBD0F800A050467C
:10391000FCF75EFC00230A9323680593D8F8003077
:1039200094F818B0073323F0070303F10802C8F82E
:103930000020D3E90023C4E91223D4E9128929F035
:1039400000430793CDF8188008EE100A9F4BDDE97D
:1039500006014FF0FF32FDF7E9F888BBDDE906010B
:103960009A4B4FF0FF32FDF7C3F848BB002200230B
:1039700040464946FDF7B2F810B12D2384F8433094
:10398000934B9448BBF1470F94BF9846804603235E
:103990002361059B23F0040222604FF00009009789
:1039A00033460BAA2146284600F0D8F9013040F0F2
:1039B00090804FF0FF300DB0BDEC028BBDE8F08F72
:1039C00042464B4640464946FDF7B0F840B14B46AB
:1039D000002BBCBF2D2384F843307F487F4BD1E7B9
:1039E00063680BF0DF0206925A1C3FD10623636026
:1039F000059B616843F48062002303930AABCDE921
:103A000001B309AB49EC108B009322600DF1230345
:103A10002846FFF7CDFE069B0999472B804608D123
:103A2000C81C02DB6368994241DDABF1020B5FFA0F
:103A30008BFBBBF1650F20D801395A4604F15000C9
:103A40000991FFF717FF0A9A1318012A814623618B
:103A500002DC2268D20701D5013323619DF82330AF
:103A6000002B9CD02D2384F8433098E7069A472AF0
:103A7000BED1002BBCD10123B9E7BBF1660F18D131
:103A8000002963680BDD216113B92268D00702D5D4
:103A900001330B442361A1654FF00009DEE713B940
:103AA0002268D20701D50233F4E70123F2E74FF091
:103AB000670B0A9B994205DB23682161D807EAD589
:103AC0004B1CE7E70029D4BFC1F1020201221344D5
:103AD000E0E723685A0507D4236942463146284661
:103AE000B84701302CD164E7BBF1650F40F2E080AC
:103AF000D4E9120100220023FCF7E6FF002834D0AD
:103B0000374A012331462846B84701303FF451AFC8
:103B1000DDE909239A4202DB2368D80710D518EEA5
:103B2000103A524631462846B84701303FF441AF7B
:103B30004FF0000804F11A090A9B013B434509DCD8
:103B400023689B0700F10581E0680B9B9842B8BF92
:103B5000184630E701234A4631462846B847013027
:103B60003FF427AF08F10108E6E7099B002B39DC99
:103B70001B4A012331462846B84701303FF419AFAC
:103B8000DDE90923134302D12368D907D8D518EEFC
:103B9000103A524631462846B84701303FF409AF43
:103BA0004FF0000904F11A0A099B5B424B4501DC06
:103BB0000A9B92E70123524631462846B847013016
:103BC0003FF4F7AE09F10109EEE700BFFFFFEF7F19
:103BD0009462000898620008A06200089C620008D5
:103BE000A46200080A9AA36D9A42A8BF1A46002A46
:103BF000914637DC4FF0000B29EAE97904F11A020B
:103C0000A36D0593A3EB09035B4533DCDDE90923D1
:103C10009A423BDB2368DA0738D40A9A059B099954
:103C2000D31AA2EB01099945A8BF9946B9F1000F33
:103C300035DC4FF0000829EAE97904F11A0ADDE9D8
:103C400009239B1AA3EB090343457FF779AF0123AF
:103C5000524631462846B84701303FF4AAAE08F133
:103C60000108ECE71346314642462846B847013082
:103C7000C0D19EE60123314628460592B84701305F
:103C80003FF497AE059A0BF1010BB9E718EE103A25
:103C9000524631462846B8470130BED189E6059ADA
:103CA0004B46424431462846B8470130C1D180E6F0
:103CB0000A9A012A01DCDB0738D501234246314646
:103CC0002846B84701303FF474AE18EE103A524619
:103CD00031462846B84701303FF46BAED4E91201B3
:103CE00000220023FCF7F0FED8B90A9B08F101027C
:103CF000013B31462846B84701300ED159E6012331
:103D0000524631462846B84701303FF452AE08F1DA
:103D100001080A9B013B4345F1DC4B4604F150028C
:103D2000DCE64FF0000804F11A0AF2E701234246EC
:103D3000DFE701234A4631462846B84701303FF4C1
:103D400038AE08F10108E3680B995B1A4345F0DCD3
:103D5000FAE64FF0000804F11909F4E72DE9F047FD
:103D6000164699468A680B69DDF820809342B8BFF1
:103D70001346336091F8432007460C460AB10133DD
:103D800033602368990642BF336802333360256885
:103D900015F0060506D104F1190AE36832689B1A8A
:103DA000AB4226DC94F84320131E226818BF01237F
:103DB00092062BD404F1430249463846C0470130ED
:103DC0001ED02368E568326803F00603042B08BFA1
:103DD000AD1AA36822690CBF25EAE5750025934258
:103DE000C4BF9B1AED1800261A34B5421AD1002020
:103DF00008E00123524649463846C047013003D106
:103E00004FF0FF30BDE8F0870135C6E7E1185A1CD6
:103E1000302081F84300224494F8451082F8431082
:103E20000233C7E70123224649463846C0470130DE
:103E3000E6D00136D9E700002DE9FF470C46914650
:103E4000277E0C99782F80469A4604F1430207D8C2
:103E5000622F0AD8002F00F0D880582F00F0A380DE
:103E600004F1420684F842703AE0A7F16303152B8F
:103E7000F6D801A050F823F0D13E0008E53E000836
:103E8000613E0008613E0008613E0008613E000896
:103E9000E53E0008613E0008613E0008613E000802
:103EA000613E0008F13F0008153F0008D33F0008BD
:103EB000613E0008613E000813400008613E0008B2
:103EC000153F0008613E0008613E0008DB3F000826
:103ED0000B681A1D1B680A6004F1420684F8423020
:103EE0000123A3E0256808682E0600F104030AD523
:103EF00005680B60002D03DA2D236D4284F84330F2
:103F00005E480A2319E015F0400F05680B6018BFE2
:103F10002DB2EFE70B682568181D0860280601D54B
:103F20001D6802E06906FBD51D8854486F2F0CBF41
:103F300008230A23002184F843106668A660002E37
:103F4000A2BF216821F0040121600DB9002E4DD0DF
:103F50001646B5FBF3F103FB1157C75D06F8017D6B
:103F60002F46BB420D46F4D9082B0BD12368DF073F
:103F700008D5236961689942DEBF302306F8013C09
:103F800006F1FF36921B2261CDF800A04B4603AA32
:103F900021464046FFF7E2FE01304CD14FF0FF30A2
:103FA00004B0BDE8F087354884F8457023680E6892
:103FB0001F0656F8045B0E6014D5D90744BF43F0C2
:103FC000200323601DB9236823F0200323601023FE
:103FD000B0E7236843F0200323607823284884F85F
:103FE0004530E3E75E0648BFADB2E6E71646BBE7FD
:103FF0000B68266860691D1D0D6035061B6801D5BC
:10400000186002E07106FBD5188000232361164674
:10401000BAE70B681A1D0A601E6862680021304604
:10402000FCF7DEF808B1801B606063682361002341
:1040300084F84330A8E72369324649464046D047D2
:104040000130ABD023689B0713D4E068039B9842F0
:10405000B8BF1846A4E70123324649464046D04738
:1040600001309BD00135E36803995B1AAB42F2DC67
:10407000EBE7002504F11906F5E700BFA66200088A
:10408000B76200080FB40A4B13B51C6824B1A369CA
:1040900013B9204600F0E0FE05AB049AA168019335
:1040A000204601F0F7FB02B0BDE8104004B07047B5
:1040B000140000202DE9F74F03690C69A34207465D
:1040C000C0F28180013C01F1140800F1140505EBF8
:1040D0008403019358F8243055F8242001339A4280
:1040E0004FEA840B08EB8409B2FBF3F631D34FF0AF
:1040F000000E4046AC46F24650F8042B93B206FB45
:1041000003E34FEA134E9BB2AAEB0303120CDCF855
:1041100000A006FB02E213FA8AF34FEA124E1FFADE
:1041200082FADCF80020CAEB124202EB23429BB277
:1041300043EA024381454CF8043B4FEA224ADBD272
:1041400055F80B302BB9019B043B9D421A462ED3E8
:104150003C61384601F0BAF9002824DB01362846D4
:104160004FF0000C58F8042BD0F800E093B2ACEB01
:104170000303120C13FA8EF3C2EB1E4202EB23422E
:104180009BB243EA0243C14540F8043B4FEA224C4C
:10419000E8D255F8242005EB840322B9043B9D4264
:1041A0001A460AD33C61304603B0BDE8F08F12686E
:1041B000043B002ACCD1013CC7E71268043B002A2B
:1041C000F0D1013CEBE70020EEE70000000000002A
:1041D0002DE9F04F2DED028B57EC106B95B0456A31
:1041E000DDF880800591CDE90267044609920F93BE
:1041F00075B9102000F0D6FE0246606220B9B24BBD
:10420000EA21B24801F09CFDC0E901550560C56096
:10421000636A196851B15A684A60012393408B6000
:10422000204600F015FF636A00221A603B1EB9BFEA
:1042300023F0004303930023C8F80030DDF80C900E
:10424000A34BBCBF0122C8F8002033EA09031BD1ED
:104250000F9A42F20F731360C9F31303334300F054
:104260007A85219B63B99B4B24E09B4B00930833D9
:10427000219A1360009815B0BDEC028BBDE8F08F59
:10428000944B00930333F3E79DED027B002251EC46
:10429000170B00238DED0A7BFCF716FC804658B106
:1042A0000F9A01231360219B002B00F051858B484E
:1042B0001860431E0093DDE79DED0A0B12AA13A9B7
:1042C000204601F0A7F9C9F30A558346002D7CD09A
:1042D0000B9BCDF84080C3F31303DDE90A6743F07D
:1042E0007F5747F44017A5F2FF357D4B002230463B
:1042F0003946FBF7C9FF6EA3D3E90023FCF77CF92D
:104300006DA3D3E90023FBF7C1FF064628460F46FD
:10431000FCF708F96AA3D3E90023FCF76DF902461C
:104320000B4630463946FBF7B1FF06460F46FCF711
:1043300013FC00228246002330463946FCF7CEFBB0
:1043400048B15046FCF7EEF832463B46FCF7BCFB62
:1043500008B90AF1FF3ABAF1160F54D8614B03EBD2
:10436000CA03D3E90023DDE90A01FCF7B7FB002803
:104370004BD00AF1FF3A00230E93129B5D1B6B1E7C
:10438000049343BF0023C5F1010804934FF00008D4
:10439000BAF1000F3BDB049BCDF834A053440493E7
:1043A00000230693059B092B69D8052BC4BF043B4A
:1043B0000593059BA3F10203CCBF00250125032B28
:1043C00069D8DFE803F02C4E4C5ADDE912531D4446
:1043D00005F23243202BC1BFC3F1400305F2124066
:1043E00009FA03F326FA00F0DABFC3F1200306FA54
:1043F00003F01843FCF786F801230646A1F1F8778D
:10440000013D109371E70123B6E70E90B5E7CAF1BD
:10441000000306930023A8EB0A080D93C2E70023CC
:104420000893099B002B39DC4FF00109CDF804906B
:104430004B46CDF82490606A00224260042202F1CB
:1044400014069E4241682FD9204600F0C1FD00901D
:1044500000284BD1244B02464FF4D571D1E60123FD
:10446000DEE700230893099B0AEB030909F1010326
:10447000012B0193B8BF0123DDE70123F2E70125FA
:104480000023059308954FF0FF390022CDF80490E2
:1044900012230992CFE701230893F4E7DDF8249073
:1044A000CDF804904B46C6E7013141605200C6E7A3
:1044B00061436F63A787D23FB3C8608B288AC63F2A
:1044C000FB799F501344D33FD5620008EC6200088B
:1044D0000000F07FD1620008C8620008A5620008F1
:1044E0000000F83F8864000868630008636A009A67
:1044F0001A60019B0E2B00F2AD80002D00F0AA8007
:10450000BAF1000F36DDC34A0AF00F0302EBC30312
:1045100093ED007B1AF4807F4FEA2A17B0EE478AAA
:10452000F0EE678A16D0BC4BDDE90A01D3E9082317
:10453000FCF78CF9CDE9020107F00F070325B64E11
:1045400057B9DDE9020153EC182BFCF77FF9CDE9EF
:10455000020129E00225F2E7F90708D551EC180B12
:10456000D6E90023FCF748F841EC180B01357F1021
:104570000836E5E700F0A680CAF10006A54BA64F75
:1045800006F00F0203EBC203D3E90023DDE90A01C1
:10459000FCF732F8CDE90201361100230225002E86
:1045A00040F08580002BD2D10E9B002B00F08C8038
:1045B000DDE90267994B002230463946FCF78EFA56
:1045C000002800F08180019B002B7DD0B9F1000F05
:1045D0003CDD0AF1FF3307930022914B3046394608
:1045E000FCF70AF8CDE902010135CDF83090DDE99C
:1045F00002672846FBF796FF32463B46FBF7FCFF77
:10460000884B0022FBF742FEA1F15073CDE9020175
:1046100003930C9B002B5CD1834B00223046394620
:10462000FBF732FEDDE9022306460F46FCF774FA7B
:10463000002840F09682DDE90221304601F1004376
:104640003946FCF74BFA002840F08882DDE90A235E
:10465000CDE90223139B002BC0F25881BAF10E0F53
:1046600000F354816B4B03EBCA03D3E90089099B28
:10467000002B80F2E380019B002B00F3DF8040F0F1
:104680006D82694B002240464946FBF7B5FFDDE9E4
:104690000223FCF737FA019E3746002840F0438298
:1046A000009D312305F8013B0AF1010A3FE2F207C0
:1046B00005D5D7E90023FBF79FFF013501237610CD
:1046C00008376CE702256FE7019BCDF81CA00C931F
:1046D0008DE700990C980C9A4E4B9DED027B01449E
:1046E00002910899B0EE478AF0EE678A03EBC203A5
:1046F00053E90223002945D04C490020FCF7A6F8D5
:1047000053EC182BFBF7C0FD009D41EC180B39460C
:104710003046FCF721FA0C90FBF704FF02460B46EB
:1047200030463946FBF7B0FD0C9B303305F8013BB2
:1047300053EC182B06460F46FCF7D0F9002865D13C
:1047400032463B4635490020FBF79EFD53EC182BC3
:10475000FCF7C4F9002840F0B980029B9D423FF469
:1047600075AF2F4B51EC180B0022FBF745FF2C4B7C
:1047700041EC180B002230463946FBF73DFF064658
:104780000F46C4E751EC170BFBF736FF029B009D69
:104790000C9341EC180B39463046FCF7DDF91190CB
:1047A000FBF7C0FE02460B4630463946FBF76CFD70
:1047B000119B303305F8013B029B9D4206460F4694
:1047C0004FF0000234D1194B51EC180BFBF75EFD92
:1047D00002460B4630463946FCF79EF9002875D153
:1047E00053EC182B11490020FBF74EFD02460B46F7
:1047F00030463946FCF772F900283FF427AF0C9D8C
:104800006B1E0C9315F8013C302BF8D0DDF81CA082
:104810004AE000BF88640008606400080000F03FC0
:104820000000244000001C40000014400000E03F55
:10483000AF4BFBF7E1FE06460F46ACE7DDE902674A
:10484000009D42464B4630463946FBF7FFFFFCF7DA
:1048500083F90290FBF766FE42464B46FBF7CCFE1F
:1048600002460B4630463946FBF70EFD029E019F7D
:10487000303605F8016B009EAE1BB74202460B4670
:1048800037D1FBF703FD42464B4606460F46FCF781
:1048900043F9C8B942464B4630463946FCF714F94D
:1048A00010B1029BD9070FD42046594600F0D0FB27
:1048B00000232B700F9B0AF101001860219B002B35
:1048C0003FF4D8AC1D60D5E4CDF81CA02B461D46A6
:1048D00013F8012D392A08D1009A9A42F7D1079A84
:1048E00000990132079230220A701A7801321A7048
:1048F0008CE77F4B0022FBF77FFE00220023064659
:104900000F46FCF7E1F800289BD0CDE7089A002A73
:1049100000F0C480059A012A00F3A880109A002AAA
:1049200000F0A08003F23343069E4546049A01211D
:104930001A4420469844049200F046FC0746002D95
:104940000BDD049B002B08DDAB42049AA8BF2B466D
:10495000A8EB0308ED1AD31A0493069BFBB1089B3E
:10496000002B00F09F80002E11DD39463246204694
:1049700000F0E6FC5A4601460746204600F03AFCA5
:1049800059460790204600F063FB079B9B46069B19
:104990009A1B04D05946204600F0D2FC83460121E0
:1049A000204600F011FC0D9B002B06467CDD1A46CC
:1049B0000146204600F0C4FC059B012B064676DD2F
:1049C00000230693336906EB8303186900F0ACFB00
:1049D000C0F12000049B184410F01F0000F08680F6
:1049E000C0F12003042B7FDDC0F11C00049B0344B5
:1049F000804405440493B8F1000F05DD5946424652
:104A0000204600F0F7FC8346049B002B05DD314671
:104A10001A46204600F0EEFC06460E9B002B69D09D
:104A20003146584600F052FD002863DA002359460B
:104A30000A22204600F02EFB089B0AF1FF3A83462B
:104A4000002B00F08F81394600230A22204600F017
:104A500021FBB9F1000F074600F38E80059B022B66
:104A600050DC89E0129BC3F136035DE7019B5E1EBB
:104A7000069BB342BFBF069B0696F21A0D9BB6BFBC
:104A80009B189E1B0D93019BB8BF0026002BB5BF42
:104A9000A8EB0305019B0023454647E7069E089FB8
:104AA00045464CE7069A75E7059B012B18DC029BEF
:104AB000B3B9039BC3F31303A3B9039B23F00043D0
:104AC0001B0D1B052BB1049B0133049308F1010856
:104AD000012306930D9B002B7FF474AF012079E72F
:104AE0000023F6E7029BF4E785D018461C307DE7EB
:104AF00000002440019B002B38DC059B022B35DD98
:104B0000DDF80490B9F1000F0DD131464B46052276
:104B1000204600F0BFFA01460646584600F0D6FC93
:104B200000283FF7BDAD099B009D6FEA030A4FF0D7
:104B300000083146204600F08BFA002F3FF4B4AE57
:104B4000B8F1000F05D0B84503D04146204600F02B
:104B50007FFA3946204600F07BFAA5E60026374664
:104B6000E1E70C9EDDF81CA0374699E5089BDDF8CF
:104B70000490002B00F0FD80002D05DD39462A460B
:104B8000204600F037FC0746069B002B5CD0796876
:104B9000204600F01DFA054628B9804B024640F237
:104BA000EA21FFF72EBB3A690232920007F10C01AD
:104BB0000C3000F0FFF901222946204600F01AFCD3
:104BC000009B01330193009B4B440793029B03F02E
:104BD0000103B84606930746019B3146013B584600
:104BE0000293FFF767FA0346303304904146584674
:104BF000089300F06BFC3A4681463146204600F0AF
:104C000081FCC268089B054602BB0146584600F07D
:104C10005DFC089B024629462046CDE9083200F09B
:104C200017FA059B099A019D43EA0201069B0B4373
:104C3000089B0DD1392B29D0B9F1000F01DD049B60
:104C40003133029A137074E73846B9E70122E2E77C
:104C5000B9F1000F06DB059941EA0909069959EAFD
:104C6000010120D1002AECDD5946012220460193A2
:104C700000F0C0FB3146834600F028FC0028019B71
:104C800002DCDED1DA07DCD5392BD8D1029A392300
:104C900013702B461D46013B15F8012C392A50D0C4
:104CA00001321A7045E7002A03DD392BEED00133BB
:104CB000C7E7019A079902F8013C8A422AD059466F
:104CC00000230A22204600F0E5F9B84583464FF05C
:104CD00000034FF00A024146204607D100F0DAF9FE
:104CE00080460746019B0133019375E700F0D2F936
:104CF0003946804600230A22204600F0CBF90746B9
:104D0000F0E7B9F1000F009ACCBF4D4601251544DC
:104D10004FF00008594601222046019300F06AFB3B
:104D20003146834600F0D2FB0028B2DC02D1019B61
:104D3000DB07AED42B461D4613F8012D302AFAD0DE
:104D4000F7E6009A9A42A5D10AF1010A312379E7E0
:104D5000134BFFF7AFBA219B002B7FF486AA114BB0
:104D6000FFF7A8BAB9F1000F03DC059B022B3FF750
:104D7000C9AE009D31465846FFF79CF900F130035B
:104D800005F8013B009AAA1A9145BADD594600235D
:104D90000A22204600F07EF98346EBE768630008AC
:104DA000A4620008C8620008002310B50446C0E9E8
:104DB0000033C0E90433836081814366C28183612B
:104DC000194608225C30FEF7EBFC054B6362054B8D
:104DD000A362054BE362054B2462236310BD00BF51
:104DE000155B0008375B00086F5B0008935B0008E9
:104DF000014900F0AFB800BFA95E000870B54A1EB7
:104E0000682555430E4605F1740100F0BFFC0446C9
:104E100040B10021C0E900160C30A06005F1680225
:104E2000FEF7BEFC204670BD014800F0B8B800BFD8
:104E3000A8040020014800F0B3B800BFA804002077
:104E4000014800F0ACB800BFA3040020014800F006
:104E5000A7B800BFA304002010B50446FFF7F0FF79
:104E6000A3691BB1BDE81040FFF7F0BFC4E91233DE
:104E70002365134B134A1B68A262A34204BF01239C
:104E8000A361204600F020F86060204600F01CF886
:104E9000A060204600F018F80022E060042160685D
:104EA000FFF782FFA06801220921FFF77DFFE0687C
:104EB00002221221FFF778FF0123A361D2E700BF8E
:104EC00090620008F14D0008F8B50746FFF7ACFF07
:104ED0001E4B1E68B36913B93046FFF7BDFF483655
:104EE000D6E90134013B03D533680BB33668F7E7E5
:104EF000B4F90C50D5B9164BE36004F1580065665F
:104F000000F04CF8FFF796FFC4E90155C4E90455D9
:104F10002560A5610822294604F15C00FEF740FCEB
:104F2000C4E90D55C4E912552046F8BD6834D9E7E7
:104F300004213846FFF762FF044630600028D5D1CF
:104F4000FFF778FF0C233B60EEE700BF906200089C
:104F50000100FFFF2DE9F8430646884600F14804AA
:104F60000027D4E90195B9F1010905D52468002C81
:104F7000F7D13846BDE8F883AB89012B07D9B5F9DD
:104F80000E30013303D029463046C0470743683509
:104F9000E9E700000048704768010020704770474B
:104FA00070470000024B0146186800F0EFBB00BFDD
:104FB000140000200A44914200F1FF3300D17047F1
:104FC00010B511F8014B03F8014F9142F9D110BD12
:104FD00070B5466A04460D4676B91020FFF7E2FF29
:104FE0000246606220B9184B1848662100F0A8FEFE
:104FF000C0E901660660C660666AF36883B1636AE9
:10500000DB6853F82500B8B9012101FA05F6721DD5
:105010009200204600F05AFB60B1C0E901560EE054
:1050200021220421204600F051FB636AF060DB6816
:10503000002BE4D1002070BD026843F82520002336
:10504000C0E90333F7E700BFD5620008DC6300085E
:1050500070B5466A05460C4676B91020FFF7A2FFE8
:105060000246686220B9094B09488A2100F068FEAF
:10507000C0E901660660C6603CB16B6A6268DB68C5
:1050800053F82210216043F8224070BDD562000819
:10509000DC6300082DE9F0410E69074698460C468E
:1050A00001F1140000230568A9B202FB01814FEA57
:1050B000114C2D0C02FB05C589B2013301EB0541F2
:1050C0009E4240F8041B4FEA1548ECDCB8F1000F93
:1050D00022D0A368B34219DC616838460131FFF77A
:1050E00077FF054628B902460D4B0E48B52100F062
:1050F00027FE2269023204F10C0192000C30FFF706
:1051000059FF21463846FFF7A3FF2C4604EB8603E0
:105110000136C3F8148026612046BDE8F08100BF47
:1051200068630008DC630008030C1B04D3B90004A7
:10513000102310F07F4F04BF0002083310F0704FAF
:1051400004BF0001043310F0404F04BF800002335D
:10515000002805DB10F0804F03F1010308BF202376
:10516000184670470023E4E7036813F0070201467E
:105170000BD0DA0724D4980749BF5B089B080120AD
:105180000B605CBF0B600220704798B2B0B91B0C7B
:10519000102013F0FF0F04BF1B0A08301A0704BFCA
:1051A0001B0904309A0704BF9B080230DA0703D4B6
:1051B0005B0800F1010005D00B6070471046E8E77E
:1051C000002070472020704710B50C460121FFF7E2
:1051D000FFFE024628B9054B05484FF4A07100F0C8
:1051E000AFFD01234461036110BD00BF6863000887
:1051F000DC6300082DE9F04F14460A6923699A42DE
:10520000B8BF0B460D46BCBF25461C46D5F810A0BE
:10521000D4F81090AB6869680AEB0907BB4285B007
:10522000B8BF0131FFF7D4FE30B90246424B4348C4
:1052300040F25D1100F084FD00F1140606EB8708D2
:105240003346002243451ED305F1140C04F1140328
:105250000CEB8A0C03EB89020292ACEB0502153AC7
:1052600022F00302043205F115018C4538BF0422F7
:105270000192029A03939A4208D8002F55DC0761E5
:1052800005B0BDE8F08F43F8042BDBE7B3F800A0CE
:10529000BAF1000F20D005F1140EB14600225EF8DD
:1052A000044BD9F800B0A1B21FFA8BFB0AFB01B185
:1052B0001144D9F80020240C120C0AFB042404EB3E
:1052C000114489B241EA0441F44549F8041B4FEA0C
:1052D0001442E4D801997250039AB2F80290043350
:1052E000B9F1000F1FD0346805F11401B6464FF034
:1052F000000A0A88BEF802B009FB02B29244A4B2C6
:1053000044EA0A444EF8044B51F8044BBEF800201E
:10531000240C09FB042404EB1A448C454FEA144A7C
:10532000E7D8019AB4500436A3E758F8043D002B9F
:10533000A5D1013FA1E700BF68630008DC63000856
:105340002DE9F843154612F0030206460F4607D032
:10535000254C013A002354F82220FFF79BFE074614
:10536000AD103DD0746A7CB91020FFF71BFE0246D9
:10537000706228B91D4B1E484FF4D77100F0E0FC55
:10538000C0E901440460C460D6F82480D8F808401D
:105390004CB940F271213046FFF716FF0023C8F8E0
:1053A0000800044603604FF00009EB070AD53946B0
:1053B00022463046FFF71EFF394680463046FFF74B
:1053C00047FE47466D100BD0206838B9224621466B
:1053D0003046FFF70FFF2060C0F800900446E4E776
:1053E0003846BDE8F88300BF50650008D562000864
:1053F000DC6300082DE9F0470C464968236903EB9C
:105400006218A368074691464FEA621A08F101063E
:10541000B3420BDB3846FFF7DBFD054648B90246D1
:10542000284B294840F2D91100F08AFC01315B0079
:10543000EEE7002300F1140100F110021846534575
:1054400033DB20692AEAEA7A04F1140319F01F0910
:1054500001EB8A0103EB800C2BD0C9F1200E8A46A8
:105460000022186800FA09F002434AF8042B53F8A6
:10547000042B9C4522FA0EF2F3D8ACEB0403153B47
:1054800023F00303043304F11500844538BF0423DB
:10549000CA500AB108F10206013E38462E61214683
:1054A000FFF7D6FD2846BDE8F08742F8040F013328
:1054B000C5E7043953F8042B41F8042F9C45F9D86B
:1054C000EAE700BF68630008DC63000830B50269E2
:1054D0000C69121B0ED100F11403143103EB84008C
:1054E00001EB840150F8045D51F8044DA54203D04E
:1054F00005D30122104630BD8342F3D3FAE74FF0C3
:10550000FF32F7E72DE9F84F0C46064611462046D4
:105510001746FFF7DBFF051E10D129463046FFF77F
:1055200057FD30B9394B024640F23221384800F07D
:1055300007FC0123C0E90435BDE8F88FA4BF3B4652
:10554000274630467968A6BF1C4600250125FFF78F
:105550003FFD20B92D4B02464FF41071E6E73E693E
:10556000C560256907F1140104F1140900F1140E56
:1055700007F1100201EB860C09EB8505F2460027C6
:1055800059F8043B52F804BF1FFA83F817FA8BF757
:105590001B0CA7EB0808C3EB1B4303EB28431FFAC4
:1055A00088F81F144D4548EA03434AF8043BE7D8FE
:1055B0002B1B153B23F0030304331534A54238BFDE
:1055C0000423194473449E460D4665450ED30CF1E1
:1055D0000302521A22F0030203398C4538BF00221D
:1055E0001A4452F8043D7BB10661A5E755F8048BD7
:1055F00017FA88F4221402EB1842A4B244EA0244D7
:105600004EF8044B1714E0E7013EEAE76863000830
:10561000DC6300082DE9F7438946012157EC106B44
:105620009046FFF7D5FC044630B90246254B264884
:1056300040F20A3100F084FBC7F30A55C7F31303A5
:1056400035BB002E019328D068460096FFF78CFDED
:10565000009900B3019AC0F1200302FA03F30B434F
:10566000C24063610192019BA361002B14BF02221F
:1056700001222261D5B1A5F233450544C9F8005095
:10568000C0F13500C8F80000204603B0BDE8F08343
:1056900043F48013D5E76161E5E701A8FFF764FDF6
:1056A000019B6361012222612030E3E704EB820366
:1056B000A0F23240C9F800001869FFF735FDC0EBD1
:1056C0004210DFE768630008DC63000813B54A4353
:1056D0001146019200F05AF8044618B1019A0021CF
:1056E000FEF75EF8204602B010BD000037B5002975
:1056F00048D051F8043C0190002BA1F10404B8BF3C
:10570000E41800F0A7FC204A01981368154633B945
:105710006360146003B0BDE8304000F0A1BCA34258
:105720000BD921686218934204BF1A685B686360F2
:1057300004BF521822602C60ECE71A465B680BB17C
:10574000A342FAD911685518A5420BD12468214407
:105750005418A3421160DDD11C685B68536021447A
:105760001160D7E702D90C230360D3E725686119DC
:105770008B4204BF19685B68636004BF49192160EC
:105780005460C7E703B030BDD0020020F8B5CD1C8F
:1057900025F0030508350C2D38BF0C25002D0646D5
:1057A00001DBA94203D90C2333600020F8BD00F0CF
:1057B00051FC21490A6814469CB9204F3B6823B923
:1057C0002146304600F096F938602946304600F010
:1057D00091F9431C23D10C233360304600F040FC88
:1057E000E3E723685B1B17D40B2B03D923601C440E
:1057F000256004E06368A2420CBF0B605360304632
:1058000000F02EFC04F10B00231D20F00700C21A4B
:10581000CCD01B1AA350C9E722466468CCE7C41C4D
:1058200024F00304A042E3D0211A304600F062F9CC
:105830000130DDD1CFE700BFD0020020D40200202C
:105840009368013B002B10B4936008DA9469A3427B
:1058500001DB0A2903D15DF8044B00F09FB91368FE
:10586000581C1060197008465DF8044B7047F8B575
:1058700006460F461446D518AC4201D1002007E079
:1058800014F8011B3A463046FFF7DAFF431CF3D108
:10589000F8BD00002DE9F04F0D469DB01446984626
:1058A000064618B183690BB9FFF7D6FA894B9D42BA
:1058B0001BD175686B6ED90705D4AB899A0502D4E4
:1058C000A86DFFF76CFBAB891B0701D52B69EBB902
:1058D0002946304600F0C6F9C0B16B6EDC070ED524
:1058E0004FF0FF301DB0BDE8F08F7B4B9D4201D1E2
:1058F000B568DFE7794B9D4208BFF568DAE7AB8909
:105900009805EDD4A86DFFF74BFBE9E70023099359
:1059100020238DF82930CDF80C803023DFF8C081AA
:105920008DF82A304FF0010923469A4613F8012BCF
:105930000AB1252AF9D1BAEB040B0BD05B462246FB
:1059400029463046FFF793FF013000F0AA80099AFC
:105950005A4409929AF80030002B00F0A2800023EC
:105960004FF0FF32CDE905230AF1010A04930793B2
:105970008DF853301A935446052214F8011B5848E9
:10598000FAF72EFC049AD8B9D10644BF20238DF82B
:105990005330130744BF2B238DF853309AF800304F
:1059A0002A2B15D0079A544600204FF00A0C2146A6
:1059B00011F8013B303B092B4ED9B0B1079214E0EE
:1059C000A0EB080309FA03F313430493A246D2E7BA
:1059D000039B191D1B680391002BBBBF5B4242F068
:1059E000020207930793B8BF049223782E2B0CD1A1
:1059F00063782A2B35D1039B1A1D1B680392002B59
:105A0000B8BF4FF0FF3302340593DFF8E4A02178EC
:105A100003225046FAF7E4FB40B14023A0EB0A0012
:105A200003FA00F0049B03430134049314F8011BB0
:105A30002C488DF828100622FAF7D2FB00283FD018
:105A4000294B1BBB039B073323F007030833039346
:105A5000099B3B44099367E70CFB02320C4601208B
:105A6000A5E700230134059319464FF00A0C2046A0
:105A700010F8012B303A092A03D9002BC5D0059123
:105A8000C3E70CFB012104460123F0E703AB0093BD
:105A90002A46164B04A93046FDF72AFF0746781C14
:105AA000D6D16B6ED90705D4AB899A0502D4A86DFF
:105AB000FFF776FAAB895B063FF512AF099811E75D
:105AC00003AB00932A46094B04A93046FEF7B4F90C
:105AD000E4E700BF9C630008BC6300087C63000827
