:020000040800F2
:1000000000000220A9310008A5160008A716000864
:10001000A9160008AB160008AD1600080000000085
:10002000000000000000000000000000AF16000803
:10003000B116000800000000B3160008B51600084D
:10004000F9310008F9310008F9310008F9310008E8
:10005000F9310008F9310008F9310008F9310008D8
:10006000F9310008F9310008F9310008F9310008C8
:10007000F9310008BD160008F9310008F93100080F
:10008000CD160008F9310008F9310008F9310008EF
:10009000F9310008F9310008F9310008F931000898
:1000A000DD160008ED160008FD1600080D17000803
:1000B0001D1700082D1700083D170008F93100082A
:1000C000F9310008F9310008F9310008F931000868
:1000D000F9310008F9310008F9310008F931000858
:1000E000F9310008F9310008F9310008F931000848
:1000F0004D170008F9310008F9310008F9310008FE
:10010000F9310008F9310008F9310008F931000827
:10011000F9310008F9310008F9310008F931000817
:10012000F9310008F9310008F9310008F931000807
:10013000F9310008F9310008F9310008F9310008F7
:10014000F9310008F9310008F9310008F9310008E7
:10015000F9310008F9310008F9310008F9310008D7
:10016000F9310008F9310008F9310008F9310008C7
:10017000F9310008F9310008F931000800000000E9
:08018000F9310008F931000813
:1001880010B5054C237833B9044B13B10448AFF3C9
:1001980000800123237010BDE00100200000000052
:1001A800F859000808B5034B1BB103490348AFF3DE
:1001B800008008BD00000000E4010020F859000894
:1001C800034613F8012B002AFBD1181A013870478F
:1001D80081F0004102E000BF83F0004330B54FEAF0
:1001E80041044FEA430594EA050F08BF90EA020F5D
:1001F8001FBF54EA000C55EA020C7FEA645C7FEAF0
:10020800655C00F0E2804FEA5454D4EB5555B8BF12
:100218006D420CDD2C4480EA020281EA030382EA83
:10022800000083EA010180EA020281EA0303362D15
:1002380088BF30BD11F0004F4FEA01314FF4801CE8
:100248004CEA113102D0404261EB410113F0004FFA
:100258004FEA03334CEA133302D0524263EB4303B1
:1002680094EA050F00F0A780A4F10104D5F1200E4F
:100278000DDB02FA0EFC22FA05F2801841F10001AA
:1002880003FA0EF2801843FA05F359410EE0A5F17E
:1002980020050EF1200E012A03FA0EFC28BF4CF0AF
:1002A800020C43FA05F3C01851EBE37101F0004565
:1002B80007D54FF0000EDCF1000C7EEB00006EEB72
:1002C8000101B1F5801F1BD3B1F5001F0CD34908FC
:1002D8005FEA30004FEA3C0C04F101044FEA445253
:1002E80012F5800F80F09A80BCF1004F08BF5FEADA
:1002F800500C50F1000041EB045141EA050130BDBA
:100308005FEA4C0C404141EB010111F4801FA4F15C
:100318000104E9D191F0000F04BF01460020B1FAB1
:1003280081F308BF2033A3F10B03B3F120020CDAE9
:100338000C3208DD02F1140CC2F10C0201FA0CF0C7
:1003480021FA02F10CE002F11402D8BFC2F1200C2C
:1003580001FA02F120FA0CFCDCBF41EA0C019040E2
:10036800E41AA2BF01EB0451294330BD6FEA04042B
:100378001F3C1CDA0C340EDC04F11404C4F1200216
:1003880020FA04F001FA02F340EA030021FA04F328
:1003980045EA030130BDC4F10C04C4F1200220FA7F
:1003A80002F001FA04F340EA0300294630BD21FABD
:1003B80004F0294630BD94F0000F83F4801306BF83
:1003C80081F480110134013D4EE77FEA645C18BF77
:1003D8007FEA655C29D094EA050F08BF90EA020F0E
:1003E80005D054EA000C04BF1946104630BD91EA06
:1003F800030F1EBF0021002030BD5FEA545C05D109
:100408004000494128BF41F0004130BD14F5800447
:100418003CBF01F5801130BD01F0004545F0FE41BB
:1004280041F470014FF0000030BD7FEA645C1ABFF0
:10043800194610467FEA655C1CBF0B46024650EA27
:10044800013406BF52EA033591EA030F41F4002153
:1004580030BD00BF90F0000F04BF0021704730B5D9
:100468004FF4806404F132044FF000054FF00001AE
:1004780050E700BF90F0000F04BF0021704730B56F
:100488004FF4806404F1320410F0004548BF404244
:100498004FF000013EE700BF42004FEAE2014FEA99
:1004A80031014FEA02701FBF12F07F4393F07F4F74
:1004B80081F06051704732F07F4208BF704793F077
:1004C8007F4F04BF41F40021704730B54FF460748A
:1004D80001F0004521F000411CE700BF50EA01028D
:1004E80008BF704730B54FF000050AE050EA010236
:1004F80008BF704730B511F0004502D5404261EBA6
:1005080041014FF4806404F132045FEA915C3FF4E6
:10051800D8AE4FF003025FEADC0C18BF03325FEA83
:10052800DC0C18BF033202EBDC02C2F1200300FA34
:1005380003FC20FA02F001FA03FE40EA0E0021FA59
:1005480002F11444BDE600BF70B54FF0FF0C4CF447
:10055800E06C1CEA11541DBF1CEA135594EA0C0FF9
:1005680095EA0C0F00F0DEF82C4481EA030621EA34
:100578004C5123EA4C5350EA013518BF52EA03356F
:1005880041F4801143F4801338D0A0FB02CE4FF021
:100598000005E1FB02E506F00042E0FB03E54FF051
:1005A8000006E1FB03569CF0000F18BF4EF0010E49
:1005B800A4F1FF04B6F5007F64F5407404D25FEA45
:1005C8004E0E6D4146EB060642EAC62141EA5551F8
:1005D8004FEAC52040EA5E504FEACE2EB4F1FD0C3A
:1005E80088BFBCF5E06F1ED8BEF1004F08BF5FEAB8
:1005F800500E50F1000041EB045170BD06F000466A
:1006080046EA010140EA020081EA0301B4EB5C0416
:10061800C2BFD4EB0C0541EA045170BD41F480110E
:100628004FF0000E013C00F3AB8014F1360FDEBF33
:10063800002001F0004170BDC4F10004203C35DA0F
:100648000C341BDC04F11404C4F1200500FA05F392
:1006580020FA04F001FA05F240EA020001F0004233
:1006680021F0004110EBD37021FA04F642EB0601A9
:100678005EEA430E08BF20EAD37070BDC4F10C04D3
:10068800C4F1200500FA04F320FA05F001FA04F297
:1006980040EA020001F0004110EBD37041F1000183
:1006A8005EEA430E08BF20EAD37070BDC4F120058E
:1006B80000FA05F24EEA020E20FA04F301FA05F2F6
:1006C80043EA020321FA04F001F0004121FA04F29E
:1006D80020EA020000EBD3705EEA430E08BF20EA6E
:1006E800D37070BD94F0000F0FD101F000464000A8
:1006F80041EB010111F4801F08BF013CF7D041EA2A
:10070800060195F0000F18BF704703F0004652002D
:1007180043EB030313F4801F08BF013DF7D043EAFE
:100728000603704794EA0C0F0CEA135518BF95EAB4
:100738000C0F0CD050EA410618BF52EA4306D1D13B
:1007480081EA030101F000414FF0000070BD50EA5A
:10075800410606BF1046194652EA430619D094EAE4
:100768000C0F02D150EA013613D195EA0C0F05D1CE
:1007780052EA03361CBF104619460AD181EA030122
:1007880001F0004141F0FE4141F470014FF00000DA
:1007980070BD41F0FE4141F4780170BD70B54FF075
:1007A800FF0C4CF4E06C1CEA11541DBF1CEA1355F5
:1007B80094EA0C0F95EA0C0F00F0A7F8A4EB0504D7
:1007C80081EA030E52EA03354FEA013100F08880CE
:1007D8004FEA03334FF0805545EA131343EA126397
:1007E8004FEA022245EA111545EA10654FEA00264C
:1007F8000EF000419D4208BF964244F1FD0404F505
:10080800407402D25B084FEA3202B61A65EB030560
:100818005B084FEA32024FF480104FF4002CB6EB1D
:10082800020E75EB030E22BFB61A754640EA0C009D
:100838005B084FEA3202B6EB020E75EB030E22BFDD
:10084800B61A754640EA5C005B084FEA3202B6EB1E
:10085800020E75EB030E22BFB61A754640EA9C00DD
:100868005B084FEA3202B6EB020E75EB030E22BFAD
:10087800B61A754640EADC0055EA060E18D04FEA6B
:10088800051545EA16754FEA06164FEAC30343EA0B
:1008980052734FEAC2025FEA1C1CC0D111F4801FD8
:1008A8000BD141EA00014FF000004FF0004CB6E7D1
:1008B80011F4801F04BF01430020B4F1FD0C88BF70
:1008C800BCF5E06F3FF6AFAEB5EB030C04BFB6EB7B
:1008D800020C5FEA500C50F1000041EB045170BD6E
:1008E8000EF0004E4EEA113114EB5C04C2BFD4EB9B
:1008F8000C0541EA045170BD41F480114FF0000E1F
:10090800013C90E645EA060E8DE60CEA135594EA9A
:100918000C0F08BF95EA0C0F3FF43BAF94EA0C0F9D
:100928000AD150EA01347FF434AF95EA0C0F7FF412
:1009380025AF104619462CE795EA0C0F06D152EA66
:1009480003353FF4FDAE1046194622E750EA41064A
:1009580018BF52EA43067FF4C5AE50EA41047FF45B
:100968000DAF52EA43057FF4EBAE12E74FF0FF3CC0
:1009780006E000BF4FF0010C02E000BF4FF0010C91
:100988004DF804CD4FEA410C7FEA6C5C4FEA430C0A
:1009980018BF7FEA6C5C1BD001B050EA410C0CBF59
:1009A80052EA430C91EA030F02BF90EA020F0020BB
:1009B800704710F1000F91EA030F58BF994208BF22
:1009C80090422CBFD8176FEAE37040F001007047DF
:1009D8004FEA410C7FEA6C5C02D150EA013C07D136
:1009E8004FEA430C7FEA6C5CD6D152EA033CD3D081
:1009F8005DF8040B704700BF8446104662468C467B
:100A08001946634600E000BF01B5FFF7B7FF0028AD
:100A180048BF10F1000F01BD4DF808EDFFF7F4FFD6
:100A28000CBF012000205DF808FB00BF4DF808ED61
:100A3800FFF7EAFF34BF012000205DF808FB00BF84
:100A48004DF808EDFFF7E0FF94BF012000205DF8A6
:100A580008FB00BF4DF808EDFFF7CEFF94BF01205B
:100A680000205DF808FB00BF4DF808EDFFF7C4FF54
:100A780034BF012000205DF808FB00BF4FEA410C9D
:100A88007FEA6C5C02D150EA013C0AD14FEA430C80
:100A98007FEA6C5C02D152EA033C02D14FF00000BD
:100AA80070474FF0010070474FEA410212F50012FB
:100AB80015D211D56FF47873B3EB625212D94FEA9D
:100AC800C12343F0004343EA505311F0004F23FA87
:100AD80002F018BF404270474FF00000704750EADC
:100AE800013005D111F0004008BF6FF00040704799
:100AF8004FF00000704700BF53B94AB9002908BF3A
:100B080000281CBF4FF0FF314FF0FF3000F072B9E2
:100B1800ADF1080C6DE904CE00F006F8DDF804E04C
:100B2800DDE9022304B070472DE9F047089E04462A
:100B38008846002B4BD18A42154667D9B2FA82F211
:100B48004AB1C2F1200701FA02F320FA07F79540EB
:100B580047EA030894404FEA154E230CB8FBFEF70A
:100B68001FFA85FC0EFB178843EA084307FB0CF1C4
:100B7800994209D9EB1807F1FF3080F01B8199429F
:100B880040F21881023F2B445B1AA4B2B3FBFEF07B
:100B98000EFB103344EA034400FB0CFCA44509D9BE
:100BA8002C1900F1FF3380F00781A44540F204813D
:100BB80002382C4440EA0740A4EB0C0400271EB17D
:100BC800D4400023C6E900433946BDE8F0878B428C
:100BD80009D9002E00F0EB800027C6E9000138464D
:100BE8003946BDE8F087B3FA83F7002F47D18B4227
:100BF80002D3824200F2FA80841A61EB03030120D7
:100C08009846002EE0D0C6E90048DDE702B9FFDECD
:100C1800B2FA82F2002A40F08F80491B4FEA154E43
:100C28001FFA85F80127B1FBFEFC230C0EFB1C11F3
:100C380043EA014308FB0CF1994207D9EB180CF180
:100C4800FF3002D2994200F2CD808446591AA3B2ED
:100C5800B1FBFEF00EFB101443EA044408FB00F855
:100C6800A04507D92C1900F1FF3302D2A04500F2A4
:100C7800B6801846A4EB080440EA0C409FE7C7F189
:100C8800200CBB4022FA0CFE4EEA030E01FA07F4D0
:100C980020FA0CF521FA0CF34FEA1E482543B3FB62
:100CA800F8F92C0C08FB19331FFA8EFA44EA0343AF
:100CB80009FB0AF49C4202FA07F200FA07F10BD981
:100CC8001EEB030309F1FF3080F087809C4240F25D
:100CD8008480A9F1020973441B1BADB2B3FBF8F081
:100CE80008FB103345EA034400FB0AFAA24508D979
:100CF8001EEB040400F1FF336BD2A24569D9023818
:100D0800744440EA0940A0FB0289A4EB0A044C455C
:100D1800C2464B4654D351D0002E69D0B1EB0A05D8
:100D280064EB030404FA0CFCFD40FC404CEA0505A6
:100D3800C6E90054002747E7C2F1200320FA03F769
:100D4800954001FA02F021FA03F34FEA154E3843B1
:100D5800010CB3FBFEF71FFA85F80EFB173341EAC7
:100D6800034107FB08F38B4204FA02F407D9691818
:100D780007F1FF3C2FD28B422DD9023F2944CB1AD1
:100D880081B2B3FBFEF00EFB103341EA034100FBD6
:100D980008F38B4207D9691800F1FF3C17D28B4240
:100DA80015D902382944C91A40EA07473BE73746AC
:100DB800304609E70746E7E61846FBE64145ABD269
:100DC800B8EB020A69EB0E0201381346A4E7604645
:100DD800E9E7184695E76746D1E781467CE7023898
:100DE8002C4447E7ACF1020C2B442FE7384608E7C0
:100DF8003746E9E6704700BF00238B4221DA10B47A
:100E08000BE000BF4FF060421268002AF9D04FF0A3
:100E18006042147001338B420FDAC45C4FF06042B9
:100E2800D2F8802E12F0010FF4D04FF06042D2F8C1
:100E3800002E12F0010FEDD0E4E718465DF8044BE0
:100E480070471846704708B508461146FFF7D4FFA3
:100E580008BD00002DE9F0478CB0002407940894E1
:100E680009940A940B940194494B1A6B42F01002AE
:100E78001A631A6B02F010020192019A02941A6B1B
:100E880042F004021A631A6B02F004020292029AF8
:100E980003941A6B42F080021A631A6B02F0800204
:100EA8000392039A04941A6B42F001021A631A6BB4
:100EB80002F001020492049A05941A6B42F00802A7
:100EC8001A631A6B02F008020592059A06941A6BC7
:100ED80042F002021A631B6B03F002030693069B9F
:100EE800DFF8B8A022462A21504601F045FEDFF877
:100EF800B09022464FF40051484601F03DFEDFF81D
:100F0800A48022464FF20501404601F035FE214FEC
:100F180022464FF48061384601F02EFE1E4E2246CE
:100F28002021304601F028FE2A2307930125089541
:100F380009940A9407A9504601F03AFD4FF400536A
:100F48000793089509940A9407A9484601F030FDCB
:100F58004FF205030793089509940A9407A9404698
:100F680001F026FD4FF480630793089509940A94CD
:100F780007A9384601F01CFD20230793089509941A
:100F88000A9407A9304601F013FD0CB0BDE8F087BC
:100F980000380240000002400004024000100240F5
:100FA80000080240000C024000B58DB0202200214C
:100FB80004A802F0BDFB0023019302931148124AD2
:100FC8000260436083604FF6FF72C2600361436151
:100FD8008361012303930593099303A900F0BFFDDF
:100FE80050B900230193029301A9064800F000FFBD
:100FF80028B90DB05DF804FB02F086FAF1E702F0BB
:1010080083FAF6E7C40400200000014000B58DB063
:101018002022002104A802F08BFB002301930293F5
:1010280011484FF080420260436083604FF6FF72C0
:10103800C26003618361012303930593099303A9A4
:1010480000F08DFD50B900230193029301A90648D1
:1010580000F0CEFE28B90DB05DF804FB02F054FA9A
:10106800F1E702F051FAF6E70405002000B58DB06B
:101078002022002104A802F05BFB002301930293C5
:101088001148124A0260436083604FF6FF72C260E3
:1010980003618361012303930593099303A900F076
:1010A8005EFD50B900230193029301A9064800F0A0
:1010B8009FFE28B90DB05DF804FB02F025FAF1E7B0
:1010C80002F022FAF6E700BF840400200004004082
:1010D80000B58DB02022002104A802F029FB0023CE
:1010E800019302931148124A0260436083604FF6ED
:1010F800FF72C2600361836101230393059309931F
:1011080003A900F02CFD50B900230193029301A913
:10111800064800F06DFE28B90DB05DF804FB02F03A
:10112800F3F9F1E702F0F0F9F6E700BF4404002014
:101138000008004070B590B000230B930C930D93FA
:101148000E930F9303687E4A93420CD0B3F1804FFD
:1011580061D07C4A934200F08A807B4A934200F037
:10116800C48010B070BD00240194784B5A6C42F0D2
:1011780001025A645A6C02F001020192019A029427
:101188001A6B42F010021A631A6B02F010020292F4
:10119800029A03941A6B42F001021A631B6B03F064
:1011A80001030393039B4FF400630B9302260C96F1
:1011B80001250D950F950BA9654801F0F9FB4FF432
:1011C80080730B930C960D950E940F950BA961489F
:1011D80001F0EEFB22462146182001F0EFFE182010
:1011E80001F020FF22462146192001F0E7FE1920D0
:1011F80001F018FF224621461A2001F0DFFE1A20CE
:1012080001F010FF224621461B2001F0D7FE1B20CB
:1012180001F008FFA5E70024049403F50E331A6CC7
:1012280042F001021A641A6C02F001020492049A54
:1012380005941A6B42F001021A631B6B03F0010359
:101248000593059B48F202030B9302230C93012399
:101258000D930F930BA93F4801F0AAFB22462146A4
:101268001C2001F0ABFE1C2001F0DCFE79E7002415
:101278000694364B1A6C42F002021A641A6C02F099
:1012880002020692069A07941A6B42F001021A6348
:101298001A6B02F001020792079A08941A6B42F03F
:1012A80002021A631B6B03F002030893089B802356
:1012B8000B9302250C9501260D960F950BA9254831
:1012C80001F076FB10230B930C950D960E940F9559
:1012D8000BA9214801F06CFB224621461D2001F094
:1012E8006DFE1D2001F09EFE3BE700240994174B7C
:1012F8001A6C42F004021A641A6C02F00402099291
:10130800099A0A941A6B42F002021A631B6B03F0E3
:1013180002030A930A9BC0230B9302230C93012216
:101328000D920F930BA90C4801F042FB224621466F
:101338001E2001F043FE1E2001F074FE11E700BFDD
:10134800000001400004004000080040003802404E
:1013580000100240000002400004024002680E4BE8
:101368009A4200D0704700B583B00021019103F57F
:101378009A335A6C42F002025A645B6C03F002031F
:101388000193019B0A462C2001F018FE2C2001F045
:1013980049FE03B05DF804FB0004014000B587B0C6
:1013A800002301930293039304930593026803F1C6
:1013B800804303F582339A4202D007B05DF804FBFC
:1013C800002300930A4B1A6B42F004021A631B6B4A
:1013D80003F004030093009B4FF4707301930223FE
:1013E80002930323059301A9024801F0E1FAE4E717
:1013F800003802400008024030B593B00024109431
:10140800119409940A940B940C940D940E940F94CF
:1014180020252A46214601A802F08AF93048314B96
:1014280003604460856042F60313C360046144614D
:10143800846100F07BFB00283CD1002310931193BA
:1014480010A9274800F0D4FC002836D1602309935E
:1014580000220A920B920C920D920E920F9209A9F9
:101468001F4800F003FC58BB042209A91C4800F0DF
:10147800FDFB40BB082209A9194800F0F7FB28BB6F
:101488000C2209A9164800F0F1FB10BB00230193B8
:1014980002930393049305934FF400520692089322
:1014A80001A90F4800F0C7FCB0B90D48FFF776FF57
:1014B80013B030BD02F028F8BFE702F025F8C5E701
:1014C80002F022F8D0E702F01FF8D3E702F01CF888
:1014D800D6E702F019F8D9E702F016F8E5E700BFF9
:1014E800040400200004014008B50A480A4B0360C0
:1014F8004FF4E133436000238360C36003610C222F
:1015080042618361C36100F073FE00B908BD01F058
:10151800FBFFFBE704060020004C004008B50A4822
:101528000A4B03604FF4E133436000238360C360D8
:1015380003610C2242618361C36100F059FE00B966
:1015480008BD01F0E1FFFBE744060020004400402D
:1015580030B58BB004460023059306930793089390
:1015680009930368444A934204D0444A934242D0C0
:101578000BB030BD00250195414B1A6C42F4002296
:101588001A641A6C02F400220192019A02951A6BED
:1015980042F004021A631B6B03F004030293029BDC
:1015A8004FF4406305930223069301230793032313
:1015B80008930823099305A9324801F0F9F932483C
:1015C800324B03604FF0006343608560C5604FF4A1
:1015D80080630361456185614FF48073C36105626F
:1015E800456201F04BFB18B9274B63639C63BFE767
:1015F80001F08AFFF8E700250395214B1A6C42F4A5
:1016080000321A641A6C02F400320392039A0495A9
:101618001A6B42F008021A631B6B03F00803049369
:10162800049B602305930223069301230793032356
:1016380008930723099305A9154801F0B9F9154836
:10164800154B03604FF0006343608560C5604FF43D
:1016580080630361456185614FF48073C3610562EE
:10166800456201F00BFB18B90A4B63639C637FE783
:1016780001F04AFFF8E700BF004C0040004400407A
:101688000038024000080240440500204060024043
:10169800000C0240A4050020886002407047FEE765
:1016A800FEE7FEE7FEE770477047704708B501F0B0
:1016B8001DFD08BD08B5024801F080FB08BD00BF4C
:1016C8004405002008B5024801F078FB08BD00BFBA
:1016D800A405002008B5024800F007F908BD00BFBE
:1016E800C404002008B5024800F0FFF808BD00BF98
:1016F800C404002008B5024800F0F7F808BD00BF90
:10170800C404002008B5024800F0EFF808BD00BF87
:10171800C404002008B5024800F0E7F808BD00BF7F
:101728000405002008B5024800F0DFF808BD00BF36
:101738008404002008B5024800F0D7F808BD00BFAF
:101748004404002008B5024800F0CFF808BD00BFE7
:101758000404002000B583B0002100910C4B5A6CA2
:1017680042F480425A645A6C02F480420092009A11
:1017780001911A6C42F080521A641B6C03F080537A
:101788000193019B072001F007FC03B05DF804FBFF
:101798000038024030B4036A23F001030362056A8B
:1017A8004268846924F073040B681C4325F0020521
:1017B8008B682B43104DA84203D005F58065A842DD
:1017C80005D123F00803CD682B4323F004030A4D09
:1017D800A84203D005F58065A84205D122F44072DD
:1017E8004D6915438A692A43426084614A684263A5
:1017F800036230BC704700BF0000014030B4036A88
:1018080023F480730362036A4268C46924F0730492
:101818000D682C4323F400738D6843EA0523124DA9
:10182800A84203D005F58065A84206D123F40063D9
:10183800CD6843EA052323F480630B4DA84203D007
:1018480005F58065A84207D122F440524D6942EA65
:1018580005128D6942EA05124260C4614A68C26392
:10186800036230BC704700BF0000014030B4036A17
:1018780023F480530362036A4468C26922F4E6428F
:101888000D6842EA052223F400538D6843EA0533C4
:10189800094DA84203D005F58065A84204D124F477
:1018A80080444D6944EA85144460C2614A68026410
:1018B800036230BC704700BF00000140022380F87B
:1018C8003D300268936803F00703062B03D01368C2
:1018D80043F001031360012380F83D300020704776
:1018E8007047704770477047704710B504460368E3
:1018F8001A6912F0020F11D0DA6812F0020F0DD037
:101908006FF002021A610123037703689B6913F0E1
:10191800030F70D0FFF7E6FF0023237723681A69C7
:1019280012F0040F12D0DA6812F0040F0ED06FF024
:1019380004021A610223237723689B6913F4407F0A
:101948005FD02046FFF7CEFF0023237723681A696C
:1019580012F0080F12D0DA6812F0080F0ED06FF0EC
:1019680008021A61042323772368DB6913F0030F45
:101978004ED02046FFF7B6FF0023237723681A6965
:1019880012F0100F12D0DA6812F0100F0ED06FF0AC
:1019980010021A61082323772368DB6913F4407F58
:1019A8003DD02046FFF79EFF0023237723681A695E
:1019B80012F0010F03D0DA6812F0010F36D1236854
:1019C8001A6912F0800F03D0DA6812F0800F34D150
:1019D80023681A6912F0400F03D0DA6812F0400F3A
:1019E80032D123681A6912F0200F03D0DA6812F096
:1019F800200F30D110BDFFF774FF2046FFF773FFAB
:101A08008AE72046FFF76DFF2046FFF76CFF9BE74C
:101A18002046FFF766FF2046FFF765FFACE7204644
:101A2800FFF75FFF2046FFF75EFFBDE76FF001029B
:101A38001A612046FFF754FFC1E76FF080021A6170
:101A4800204600F022FAC3E76FF040021A612046F0
:101A5800FFF74AFFC5E76FF020021A61204600F041
:101A680013FAC7E70368304A904212D0B0F1804FAA
:101A78000FD0A2F57C4290420BD002F580629042D2
:101A880007D002F58062904203D002F57842904276
:101A980003D123F070034A681343234A90422AD0A3
:101AA800B0F1804F27D0A2F57C42904223D002F5B6
:101AB800806290421FD002F5806290421BD002F5EE
:101AC8007842904217D002F57052904213D002F536
:101AD800806290420FD002F5806290420BD0A2F54E
:101AE8009832904207D002F58062904203D002F506
:101AF8008062904203D123F44073CA68134323F0F1
:101B080080034A69134303608B68C3620B6883626E
:101B1800054B984203D003F58063984201D10B69C5
:101B2800036301234361704700000140A8B110B569
:101B3800044690F83D305BB1022384F83D30211D06
:101B48002068FFF78FFF012384F83D30002010BD87
:101B580080F83C30FFF702FCEEE7012070470028D0
:101B680049D0F8B505460C4690F83D30002B3DD0DD
:101B7800022385F83D30294651F8042B936823F455
:101B8800804323F0070393602868FFF76BFF2968F9
:101B98008A688E690F6A2068104326F4407626F01A
:101BA8000306A268A36942EA0323334323F47C4370
:101BB80023F0FC03E668E26946EA02261E43226A2D
:101BC8001303226943EA0213334327F0AA07626822
:101BD800646942EA04123A43886029688B612B6879
:101BE8001A62012385F83D300020F8BD80F83C30AA
:101BF800FFF7A0FABCE701207047000030B4036A81
:101C080023F010030362036A4468826922F4E642FF
:101C18000D6842EA052223F020038D6843EA051384
:101C2800114DA84203D005F58065A84206D123F0DE
:101C38008003CD6843EA051323F040030A4DA84208
:101C480003D005F58065A84207D124F440644D69A6
:101C580044EA85048D6944EA8504446082614A68DF
:101C68008263036230BC70470000014038B590F8C9
:101C78003C30012B66D00D460446012380F83C30E9
:101C8800022380F83D300C2A1AD8DFE802F0071941
:101C98001919201919193419191947000068FFF77B
:101CA80079FD2268936943F0080393612268936978
:101CB80023F0040393612268936929690B439361B4
:101CC800012384F83D30002084F83C0038BD0068CA
:101CD800FFF794FF2268936943F4006393612268D5
:101CE800936923F48063936122689369296943EABD
:101CF80001239361E4E70068FFF780FD2268D36958
:101D080043F00803D3612268D36923F00403D36145
:101D18002268D36929690B43D361D1E70068FFF7CB
:101D2800A5FD2268D36943F40063D3612268D369AF
:101D380023F48063D3612268D369296943EA0123C4
:101D4800D361BDE70220C1E710B401F01F010123F0
:101D580003FA01F4036A23EA04030362036A8A406C
:101D6800134303625DF8044B7047000010B5044646
:101D780001220068FFF7E8FF23680B4A934203D06B
:101D880002F58062934203D15A6C42F400425A64CD
:101D98002268936803F00703062B03D0136843F007
:101DA80001031360002010BD0000014010B5044677
:101DB80061B1042916D0012200210068FFF7C4FF91
:101DC800012204212068FFF7BFFF04E0012200215F
:101DD8000068FFF7B9FF2268136843F00103136036
:101DE800002010BD012204210068FFF7ADFFF2E7D3
:101DF80090F83C30012B1CD070B4012680F83C6070
:101E0800022380F83D3002685568936825F0700514
:101E18000C682C4323F080054B682B435460026800
:101E2800936080F83D60002380F83C30184670BC11
:101E380070470220704790F83C30012B22D00123D4
:101E480080F83C30CB6823F440738A68134323F44A
:101E580080634A68134323F400630A68134323F436
:101E680080530A69134323F400534A69134323F444
:101E78008043CA69134302685364002380F83C30E6
:101E88001846704702207047704770470268D36849
:101E980023F0C003D360202380F8393070470268EC
:101EA800D36823F49073D3600268536923F0010365
:101EB8005361202380F83A30704700002DE9F84339
:101EC80004460268136923F44053C1680B43136145
:101ED80083680269134342691343C2691A4301685C
:101EE800CB6823F4164323F00C031343CB6002683A
:101EF800536923F4407381690B435361C369B3F594
:101F0800004F60D00368B84A934200F0148102F58C
:101F18008062934200F00F8100F02AFD00EB800000
:101F280000EB80006568AD00B0FBF5F5AF4FA7FB8F
:101F380005356D092E0100F01BFD00EB800000EB5C
:101F480080006568AD00B0FBF5F900F011FD00EB0D
:101F5800800000EB80006568AD00B0FBF5F5A7FBDD
:101F680005356D094FF0640808FB15952D013235CC
:101F7800A7FB05356D0905F0F005354400F0F8FCC0
:101F880000EB800000EB80006668B600B0FBF6F658
:101F980000F0EEFC00EB800000EB800063689B0023
:101FA800B0FBF3F0A7FB0030400908FB10684FEACC
:101FB800081808F13208A7FB0837C7F34317236846
:101FC8002F449F600DE10368874A93425BD002F576
:101FD8008062934257D000F0CBFC00EB800000EB0E
:101FE800800065686D00B0FBF5F5804FA7FB0535EF
:101FF8006D092E0100F0BCFC00EB800000EB8000B6
:1020080065686D00B0FBF5F900F0B2FC00EB8000EC
:1020180000EB800065686D00B0FBF5F5A7FB0535A2
:102028006D094FF0640808FB1595ED003235A7FBE4
:1020380005356D096D0005F4F875354400F098FC18
:1020480000EB800000EB800066687600B0FBF6F6D7
:1020580000F08EFC00EB800000EB800063685B0002
:10206800B0FBF3F3A7FB03235B0908FB13684FEAF4
:10207800C80808F13208A7FB0837C7F342172368D6
:102088002F449F60ADE000F083FC00EB800000EB84
:10209800800065686D00B0FBF5F5544FA7FB05356A
:1020A8006D092E0100F074FC00EB800000EB80004D
:1020B80065686D00B0FBF5F900F06AFC00EB800084
:1020C80000EB800065686D00B0FBF5F5A7FB0535F2
:1020D8006D094FF0640808FB1595ED003235A7FB34
:1020E80005356D096D0005F4F875354400F050FCB0
:1020F80000EB800000EB800066687600B0FBF6F627
:1021080000F046FC00EB800000EB800063685B0099
:10211800B0FBF3F3A7FB03235B0908FB13684FEA43
:10212800C80808F13208A7FB0837C7F34217236825
:102138002F449F6055E000F02BFC00EB800000EB83
:1021480080006568AD00B0FBF5F5284FA7FB0535A5
:102158006D092E0100F01CFC00EB800000EB8000F4
:102168006568AD00B0FBF5F900F012FC00EB8000EB
:1021780000EB80006568AD00B0FBF5F5A7FB053501
:102188006D094FF0640808FB15952D013235A7FB42
:1021980005356D0905F0F005354400F0F9FB00EB55
:1021A800800000EB80006668B600B0FBF6F600F031
:1021B800EFFB00EB800000EB800063689B00B0FB46
:1021C800F3F0A7FB0030400908FB10684FEA081835
:1021D80008F13208A7FB0837C7F3431723682F44D1
:1021E8009F60BDE8F88300BF001001401F85EB51D8
:1021F80058B310B5044690F839300BB3242384F84B
:1022080039302268D36823F40053D3602046FFF79F
:1022180055FE2268136923F49043136122685369B9
:1022280023F02A0353612268D36843F40053D36030
:102238000020E063202384F8393084F83A3010BD58
:1022480080F83830FFF784F9D8E70120704700009C
:1022580030B583B090F83A40E4B2202C3DD1002943
:102268003ED0002A3ED090F83830012B3CD013469F
:102278000A460446012180F83810826283850025C9
:10228800C563222180F83A10416B1848C863616B16
:1022980017480864616B1748C864616B0D6521684D
:1022A8000431606B00F050FD019523681A680192B3
:1022B8005A680192019A84F83850DA6842F48072B8
:1022C800DA602268536943F0010353612268536955
:1022D80043F040035361284600E0022003B030BDBC
:1022E8000120FBE70120F9E70220F7E701230008B6
:1022F800412300084D23000808B5836B0268126863
:1023080012F4807F13D10022DA851968CA6822F492
:102318008072CA6019684A6922F001024A61196824
:102328004A6922F040024A61202283F83A2018467E
:1023380001F04CF908BD704708B5806BFFF7FBFF4B
:1023480008BD704710B5846B23685A6994F8393012
:10235800DBB2212B10D023685A6902F0400294F8AE
:102368003A30DBB2222B11D0E36B43F01003E36366
:102378002046FFF7E6FF10BD02F08002002AEAD0EF
:102388000023E3842046FFF781FDE4E7002AEBD031
:102398000023E3852046FFF782FDE5E7002800F0EB
:1023A800BB8170B582B00446036813F0010F3BD0BF
:1023B800A74B9B6803F00C03042B2CD0A44B9B6801
:1023C80003F00C03082B21D06368B3F5803F4FD08E
:1023D800B3F5A02F52D09E4B1A6822F480321A60AF
:1023E8001A6822F480221A606368002B50D000F02B
:1023F80089FE0546964B1B6813F4003F14D100F084
:1024080081FE401B6428F5D903208AE1904B5B6864
:1024180013F4800FD8D08E4B1B6813F4003F03D001
:102428006368002B00F07A81236813F0020F55D0FF
:10243800874B9B6813F00C0F3ED0854B9B6803F0CD
:102448000C03082B33D0E368002B68D0814B0122A2
:102458001A6000F057FE05467D4B1B6813F0020F0B
:1024680054D100F04FFE401B0228F5D9032058E153
:10247800774A136843F480331360B5E7744B1A68DE
:1024880042F480221A601A6842F480321A60ABE77C
:1024980000F038FE05466E4B1B6813F4003FC3D0AE
:1024A80000F030FE401B6428F5D9032039E1684B61
:1024B8005B6813F4800FC6D1654B1B6813F0020FDD
:1024C80004D0E368012B01D001202AE1604A136897
:1024D80023F0F803216943EAC1031360236813F06A
:1024E800080F40D0636963B35B4B01221A6000F0A8
:1024F80009FE0546564B5B6F13F0020F33D100F00F
:1025080001FE401B0228F5D903200AE1504A13684E
:1025180023F0F803216943EAC1031360DEE74D4B5A
:1025280000221A6000F0EEFD0546494B1B6813F0C7
:10253800020FD3D000F0E6FD401B0228F5D9032096
:10254800EFE0454B00221A6000F0DCFD0546404BE9
:102558005B6F13F0020F06D000F0D4FD401B022879
:10256800F5D90320DDE0236813F0040F79D0384B48
:102578001B6C13F0805F33D100230193344B1A6C2A
:1025880042F080521A641B6C03F080530193019B44
:102598000125324B1B6813F4807F23D0A368012BDD
:1025A80034D0052B38D02A4B1A6F22F001021A6753
:1025B8001A6F22F004021A67A368002B36D000F0C5
:1025C800A1FD0646224B1B6F13F0020F48D100F005
:1025D80099FD801B41F288339842F3D90320A0E08B
:1025E8000025D6E71D4A136843F48073136000F092
:1025F80089FD0646194B1B6813F4807FCED100F085
:1026080081FD801B0228F5D903208AE0104A136F48
:1026180043F001031367CFE70D4B1A6F42F0040232
:102628001A671A6F42F001021A67C5E700F06AFDDF
:102638000646074B1B6F13F0020F11D000F062FD26
:10264800801B41F288339842F3D9032069E000BF28
:102658000038024000004742800E474200700040A8
:10266800E5B9A369002B5BD0304A926802F00C02EE
:10267800082A58D0022B17D02D4B00221A6000F0E0
:1026880041FD0446294B1B6813F0007F42D000F03F
:1026980039FD001B0228F5D9032042E0234A136CB8
:1026A80023F080531364DCE7214B00221A6000F00A
:1026B80029FD05461D4B1B6813F0007F06D000F06E
:1026C80021FD401B0228F5D903202AE0E369226A8C
:1026D8001343626A43EA8213A26A5208013A43EA40
:1026E8000243E26A43EA0263104A5360104B012234
:1026F8001A6000F007FD04460C4B1B6813F0007FBE
:1027080006D100F0FFFC001B0228F5D9032008E0E1
:10271800002006E0002004E001207047012000E0CE
:10272800002002B070BD0120FBE700BF0038024066
:1027380060004742324B9B6803F00C03042B5CD0CB
:10274800082B01D02F4870472DE9F04B2C4B5A68C5
:1027580002F03F025B6813F4800F2BD0284B5B68B4
:10276800C3F388131E4600275C010025E41A65EBB5
:102778000705A90141EA9461A001001B61EB05016D
:10278800CB0043EA5073C400A01943EB07014B0286
:1027980043EAD0534402204619460023FEF7ACF919
:1027A800174B5B68C3F3014301335B00B0FBF3F0E5
:1027B800BDE8F08B124B5B68C3F388131E460027F5
:1027C8005C010025E41A65EB0705A90141EA94615B
:1027D800A001001B61EB0501CB0043EA5073C40064
:1027E800A01943EB07018B0243EA90538402204669
:1027F80019460023FEF780F9D2E70348704700BF67
:10280800003802400024F40000127A00002800F08A
:102818009D8070B504464F4B1B6803F00F038B4235
:1028280009D2CBB24B4A1370136803F00F038B42E3
:1028380001D0012070BD236813F0020F17D013F0E8
:10284800040F04D0444A936843F4E0539360236828
:1028580013F0080F04D0404A936843F46043936030
:102868003D4A936823F0F003A068034393600D4644
:10287800236813F0010F32D06368012B21D09A1E10
:10288800012A25D9344A126812F0020F60D0324961
:102898008A6822F0030213438B6000F033FC06467B
:1028A8002D4B9B6803F00C036268B3EB820F16D0C4
:1028B80000F028FC801B41F288339842F0D90320AD
:1028C800B8E7254A126812F4003FE0D10120B1E7C9
:1028D800214A126812F0007FD9D10120AAE71D4BC6
:1028E8001B6803F00F03AB4209D9EAB2194B1A70FF
:1028F8001B6803F00F03AB4201D001209AE723685D
:1029080013F0040F06D0144A936823F4E053E168E7
:102918000B439360236813F0080F07D00E4A93689F
:1029280023F46043216943EAC1039360FFF702FF80
:10293800094B9B68C3F30313084AD35CD840084B80
:102948001860002000F092FB002073E70120704718
:1029580001206FE7003C024000380240185A000886
:102968000C000020014B1868704700BF0C000020C5
:1029780008B5FFF7F7FF044B9B68C3F38223034AAC
:10298800D35CD84008BD00BF00380240285A000870
:1029980008B5FFF7E7FF044B9B68C3F34233034ACC
:1029A800D35CD84008BD00BF00380240285A000850
:1029B80000230F2B00F2D780F0B482B039E0072251
:1029C80000E00022B2403A430234674E46F8242021
:1029D800664A1468EA4302EA04064F6817F4803F1F
:1029E80001D045EA0406614C2660646802EA0406E0
:1029F8004F6817F4003F01D045EA04065B4C666057
:102A0800A46802EA04064F6817F4801F01D045EA5B
:102A18000406564CA660E46822404E6816F4001F6F
:102A280001D045EA0402514CE26001330F2B00F259
:102A3800978001229A400C6804EA0205AA42F4D160
:102A48004C68022C01D0122C10D1DE08083650F840
:102A580026C003F00704A7000F24BC402CEA040C8E
:102A68000C69BC4044EA0C0440F8264004685F0046
:102A78000326BE40F64306EA040C4C6804F003043F
:102A8800BC4044EA0C0404604C6804F1FF3CBCF10F
:102A9800010F03D9112C01D0122C10D1846806EA39
:102AA800040CCC68BC4044EA0C048460446824EA02
:102AB80002024C68C4F300149C4014434460C2688A
:102AC80016408A68BA403243C2604A6812F0805F92
:102AD800ABD000220192264A546C44F480445464DA
:102AE800526C02F480420192019A9C08A61C1E4A6C
:102AF80052F8267003F0030296000F22B24027EA2C
:102B080002071C4A90423FF45CAF02F58062904293
:102B18001AD002F58062904218D002F58062904285
:102B280016D002F58062904214D002F5806290427D
:102B380012D002F58062904210D002F58062904275
:102B48003FF43DAF08223DE701223BE7022239E787
:102B5800032237E7042235E7052233E7062231E767
:102B680002B0F0BC7047704700380140003C01409B
:102B7800003802400000024012B909048161704720
:102B88008161704730B405682C6824F480242C6077
:102B9800046863608368402B05D003689960036804
:102BA800DA6030BC704703689A600368D960F8E758
:102BB8000268D3B2103B0B49A1FB03131B090A4956
:102BC800C95CC165032B06D822F47F7222F0030288
:102BD8008265806D704722F47F7222F0030204320E
:102BE8008265F6E7ABAAAAAA105A0008836A826926
:102BF80092B9012B0AD01BB1022B01D000207047DB
:102C0800C36A13F0807F2CD100207047C36AB3F1E8
:102C1800C07F28D000207047B2F5005F05D0022B96
:102C280029D9032B15D000207047032B03D8DFE8E0
:102C380003F01C041C0A00207047C36A13F0807F4D
:102C480015D100207047C36AB3F1C07F11D00020AE
:102C58007047C36A13F0807F01D0012070470020BD
:102C680070470120704701207047012070470120FC
:102C780070470120704701207047000070B5044676
:102C880000F040FA002C5BD00546002384F834306D
:102C9800022384F835302268136823F00103136097
:102CA80023681A6812F0010F0AD000F02BFA401BB3
:102CB8000528F5D920236365032084F8350070BD05
:102CC8001A68204810406168A2680A43E1680A430C
:102CD80021690A4361690A43A1690A43E1690A4310
:102CE800216A0A430243616A04291ED01A602668D1
:102CF800756925F00705636A1D43042B07D1A36A8C
:102D08001D43E36A1BB12046FFF770FF90B9756158
:102D18002046FFF74DFFE26D3F239340836000207C
:102D28006065012384F83530C9E7E16A206B014307
:102D38000A43DBE740236365012084F83500BEE7DA
:102D48000120BCE73F8010F038B5856D90F834401D
:102D5800012C31D0012480F8344090F83540E4B299
:102D6800012C04D0002380F83430022038BD0446FA
:102D7800022084F83500002060652046FFF702FF36
:102D8800E26D3F239340AB602268136843F016035B
:102D980013602268536943F080035361236C23B1A5
:102DA8002268136843F0080313602268136843F02D
:102DB800010313600020D9E70220D7E7F0B583B0FC
:102DC800044600230193724B1D68724BA3FB053523
:102DD800AD0A876D3E68C26D08239340334210D018
:102DE80003681A6812F0040F0BD01A6822F0040264
:102DF8001A60C26D08239340BB60436D43F0010322
:102E08004365E26D01239340334209D02268526939
:102E180012F0800F04D0BB60636D43F0020363655A
:102E2800E26D04239340334209D02268126812F0FD
:102E3800020F04D0BB60636D43F004036365E26D69
:102E480010239340334224D02268126812F0080FEE
:102E58001FD0BB6023681A6812F4802F0DD01B683E
:102E680013F4002F04D1236C9BB12046984710E03F
:102E7800A36C73B1204698470BE01A6812F4807F60
:102E880003D11A6822F008021A60236C0BB120469D
:102E98009847E26D20239340334255D02268126848
:102EA80012F0100F50D0BB6094F83530DBB2052B10
:102EB8000ED023681A6812F4802F33D01B6813F4DD
:102EC800002F2AD1636C002B3ED0204698473BE068
:102ED8002268136823F0160313602268536923F0ED
:102EE80080035361236CA3B12268136823F008039D
:102EF8001360E26D3F239340BB60002384F83430B5
:102F0800012384F83530236D002B3FD020469847A5
:102F18003CE0A36C002BE7D1EBE7E36BA3B12046C1
:102F2800984711E01A6812F4807F09D11A6822F0D4
:102F380010021A60002384F83430012384F83530F5
:102F4800E36B0BB120469847636DFBB1636D13F0DB
:102F5800010F17D0052384F835302268136823F051
:102F680001031360019B01330193AB4204D823682A
:102F78001B6813F0010FF5D1002384F834300123C6
:102F880084F83530E36C0BB12046984703B0F0BDA8
:102F98000C000020B5814E1B074AD36823F4E06378
:102FA8001B041B0C000200F4E060184340F0BF60F3
:102FB80040F40030D060704700ED00E030B4174BAB
:102FC800DB68C3F30223C3F10704042C28BF0424DD
:102FD8001D1D062D18D9033B4FF0FF3505FA04F4E3
:102FE80021EA0401994005FA03F322EA030319438D
:102FF80000280BDB0901C9B200F1604000F561400F
:1030080080F8001330BC70470023E5E700F00F009C
:103018000901C9B2024B1954F4E700BF00ED00E002
:1030280014ED00E0002807DB00F01F02400901232F
:103038009340024A42F82030704700BF00E100E0A8
:103048000138B0F1807F0AD2064B5860064AF02159
:1030580082F823100020986007221A607047012028
:10306800704700BF10E000E000ED00E010B5044636
:103078000E4B18784FF47A73B3FBF0F30C4A1068D0
:10308800B0FBF3F0FFF7DCFF68B90F2C01D9012082
:103098000AE0002221464FF0FF30FFF78FFF054B73
:1030A8001C60002000E0012010BD00BF04000020CB
:1030B8000C0000200800002008B50B4B1A6842F4E9
:1030C80000721A601A6842F480621A601A6842F440
:1030D80080721A600320FFF75FFF0020FFF7C6FF2A
:1030E800FEF738FB002008BD003C0240034A116887
:1030F800034B1B780B441360704700BF8406002005
:1031080004000020014B1868704700BF84060020A7
:103118000F49D1F8883043F47003C1F888300D4B5B
:103128001A6842F001021A60002098601A6822F0BA
:10313800847222F480321A60074A5A601A6822F4AC
:1031480080221A60D8604FF000638B60704700BF20
:1031580000ED00E0003802401030002410B582B0C5
:10316800002401940D4B1A6B42F400121A631B6B76
:1031780003F400130193019B224621460D20FFF71B
:103188001DFF0D20FFF74EFF224621461020FFF7B6
:1031980015FF1020FFF746FF02B010BD00380240AF
:1031A800DFF834D0002103E00C4B5B584350043166
:1031B8000B480C4B42189A42F6D30B4A02E0002304
:1031C80042F8043B094B9A42F9D3FFF7A1FF00F0FC
:1031D8008BFA00F07DF9704700000220E85C0008D7
:1031E80000000020E0010020E00100208C06002003
:1031F800FEE70000012800D0704708B54FF6FF73BE
:10320800994200D008BDFFF77DFF014B1860F9E730
:10321800FC01002008B5024800F0B0F908BD00BF65
:10322800F403002008B54FF6FF710120FFF7E2FF15
:1032380008BD0000034B044A934201D0043BFAE75F
:10324800704700BF9002002080020020F8B52E4C85
:103258002E48A061DFF8D4C0C4F808C00123A381B8
:103268002B4921612026A6820025E561294A226092
:10327800294B6360A063294FA7624FF48067A78535
:1032880007F1804707F500372763A6860427E76319
:10329800234E26626362A065A1640826A4F84C60E8
:1032A800C4F850C0A4F85470E66522646364A0674B
:1032B8001C4EA6664FF40056A4F86C6021670221E4
:1032C800A4F874100C21E16722666366FEF7F6FA2B
:1032D800E169A069FEF74AFDE16BA06BFEF746FDC8
:1032E800E16DA06DFEF742FDE16FA06FFEF73EFDB8
:1032F8002B46032B07DC044A02EB43120A4941F828
:1033080023200133F5E7F8BD000200200404002063
:103318000010024000007442CDCCCC3D00000240B9
:10332800000078420008024080020020000C0240A1
:10333800012800D0704708B54FF6FF73994200D0B6
:1033480008BD0323064A002B04DB002142F8041BB6
:10335800013BF8E7034A0449002000F0B2F9EFE71F
:1033680080020020000000203D32000808B5FFF769
:103378006DFF00F035F808BD08B54FF6FF71012064
:10338800FFF7D6FF08BD0000034B044A934201D063
:103398000C3BFAE7704700BFC002002090020020F3
:1033A800012800D0704708B54FF6FF73994200D046
:1033B80008BD0322074B002A06DB002159600021C3
:1033C80019810C33013AF6E7034A0449002000F05A
:1033D80078F9EDE790020020000000209133000802
:1033E80010B50C4C0C4820600C4BE3600C4BA361EF
:1033F8000C4B63623C21FEF7D9FC3C21E068FEF7E8
:10340800D5FC3C21A069FEF7D1FC3C21606AFEF79F
:10341800CDFC10BD90020020C4040020040500204B
:10342800840400204404002008B54FF6FF710120F1
:10343800FFF7B6FF08BD000030B595B03022002177
:1034480008A800F075F900240394049405940694E0
:10345800079401941C4B1A6C42F080521A641B6C3E
:1034680003F080530193019B0294184B1A6842F4AD
:1034780080421A601B6803F480430293029B012375
:1034880008934FF48033099302250E954FF4800377
:103498000F93082310934FF4A873119312950723E1
:1034A800139308A8FEF77AFF0F2303930495059456
:1034B8004FF4A05306934FF480530793052103A8B4
:1034C800FFF7A4F915B030BD003802400070004085
:1034D80008B5FFF7F1FDFFF7AFFFFDF7BBFCFFF7FE
:1034E8003DFEFDF761FDFDF791FDFDF7BFFDFDF721
:1034F800EFFDFDF781FFFDF7F7FFFEF70FF8FFF788
:1035080035FFFFF787FEFCE7704770477047704745
:10351800012800D0704738B54FF6FF73994200D0A4
:1035280038BD0E48002343608360C3600C4C2246BC
:103538000C4900F0C6F80C4D0721284600F099F810
:1035480022460A49284600F0BCF80948094B03609E
:103558002246094900F0B5F8E2E700BFC40300209D
:103568000000002017350008C002002013350008AD
:10357800F4030020440600201535000808B5026849
:10358800044B1A60012204490068FEF761FE00201E
:1035980008BD00BFC4030020C30300200B780370DC
:1035A8004B7843708B788370CB78C3700B79037139
:1035B8004B7943718B798371CB79C3717047002341
:1035C800072B02D8C1540133FAE7704710B51D4BD9
:1035D8001B681B685B681C4B1B785BB91B4B1B7813
:1035E800A52B00D010BD1A4800F050FC164B012244
:1035F8001A70F7E7174B1B88072B12D9134B1C7847
:103608000023114A1370134A1380082212491348E1
:1036180000F048F8844210D000210F48FFF7CFFF90
:10362800E0E70B4800F032FC0A4A1388074908789B
:103638000949C85401331380D4E707490848FFF7FC
:10364800ADFFE9E7C4030020C2030020C303002044
:10365800305A0008C0030020EC030020C0020020FC
:10366800E403002008B54FF6FF710120FFF750FF73
:1036780008BD10B400240DE081EA4202D2B2013B39
:10368800DBB22BB112F0800FF6D15200D2B2F6E7BE
:1036980002550134FF2C02DCE2B20823F1E75DF8A1
:1036A800044B704730B400242346934206D2CD5CC5
:1036B8006C400457E4B201339BB2F6E7204630BCB5
:1036C80070470B460146184600F000B810B5054C87
:1036D80013462CB10A4601460220AFF3008010BD04
:1036E8002046FCE70000000070B50D4E0D4CA41BF1
:1036F800A4100025A54209D10B4E0C4C02F078F914
:10370800A41BA4100025A54205D170BD56F825308C
:1037180098470135EEE756F8253098470135F2E726
:10372800D05C0008D05C0008D05C0008E45C0008AD
:1037380002440346934200D1704703F8011BF9E79E
:103748002DE9FF4755EC104B0D9FDDF830A0002DFB
:103758000E4691461946B8BF22462B4627F0200749
:10376800BBBF05F100431D4600232D23B8BF1446F7
:10377800462F0B7004D0452F00D10136022100E0FE
:10378800032103AB019302AB00933246534645EC49
:10379800104B00F0D1FC472F804602D119F0010FE1
:1037A80026D0462F08EB060911D198F80030302BA7
:1037B8000AD10022002320462946FDF72DF918B921
:1037C800C6F10106CAF80060DAF800309944002210
:1037D800002320462946FDF71FF938B93022039BFC
:1037E8004B4505D2591C03911A70F8E7CDF80C9097
:1037F800039B0E9AA3EB08034046136004B0BDE890
:10380800F087F7B500290446BABF49422D232B2378
:10381800092904F8022B437020DD0DF107031F4628
:103828000A2691FBF6F506FB15113031092D03F830
:10383800011C03F1FF32294609DC3031023B02F852
:10384800011CBB42224604D3101A03B0F0BD134634
:10385800E7E713F8012B04F8012BF2E730231944AA
:103868008370021DC170EFE72DE9F04F8DB00C4653
:10387800DDF8588016461F46054601F08FFB0368A1
:1038880004931846FCF79CFC00230A93D8F80030F0
:103898000590073323F0070303F1080294F818A0F2
:1038A800D4F800B0C8F80020D3E90023C4E91223F3
:1038B800D4E9128929F000430793CDF818804FF016
:1038C800FF32A74BDDE90601FDF7D8F870BB4FF0D2
:1038D800FF32A34BDDE90601FDF7B2F830BB002249
:1038E800002340464946FDF7A1F810B12D2384F87E
:1038F80043309C4A9C4BBAF1470F8CBF9046984680
:1039080003232BF00402236122604FF00009009783
:1039180033460BAA2146284600F0E6F9013040F06C
:103928008D804FF0FF300DB0BDE8F08F42464B461A
:1039380040464946FDF7A2F810B18C4A8C4BDAE7AD
:1039480061684B1C4BF480620AA83ED10623636071
:103958000023CDE9020309AB009349EC108B0DF16C
:1039680023032260CDF804A061682846FFF7E8FE2B
:103978000AF0DF03472B804609D1099BD81C02DBDC
:103988006268934247DDAAF1020A5FFA8AFABAF13D
:10399800650F099924D80139524604F1500009915C
:1039A800FFF72FFF0A9A1318012A8146236102DCC8
:1039B8002268D10701D5013323619DF82330002BFC
:1039C800A5D02D2384F84330A1E7BAF1670F00F0A2
:1039D8007781BAF1470FBBD10029B9D10123B6E7E6
:1039E800BAF1660F19D1002963680CDD216113B99A
:1039F8002268D20702D501330B442361099BA365D2
:103A08004FF00009D9E713B92268D00701D502336E
:103A1800F3E70123F1E74FF0670ADDE90932934242
:103A280005DB22682361D107E8D50133E5E7002BE0
:103A3800D4BFC3F1020301231344DEE723685A0508
:103A480007D42369424631462846B84701302BD16E
:103A580067E7BAF1650F40F2DC8000220023D4E961
:103A68001201FCF7D9FF002833D00123414A31461F
:103A78002846B84701303FF454AFDDE909239A429C
:103A880002DB2368D8070FD5DDE904233146284631
:103A9800B84701303FF445AF4FF0000804F11A0968
:103AA8000A9B013B434509DC23689B0700F103811E
:103AB800E0680B9B9842B8BF184634E701234A4692
:103AC80031462846B84701303FF42BAF08F10108CA
:103AD800E6E7099B002B2BDC0123264A31462846C2
:103AE800B84701303FF41DAF099B23B90A9B13B9AE
:103AF8002368D907D8D5DDE9042331462846B847D5
:103B080001303FF40EAF4FF0000904F11A0A099B87
:103B18005B424B4501DC0A9B94E701235246314640
:103B28002846B84701303FF4FCAE09F10109EEE739
:103B38000A9AA36D9A42A8BF1A46002A914607DD41
:103B48001346314642462846B84701303FF4E9AEAD
:103B580004F11A034FF0000B29EAE979069315E0FE
:103B6800FFFFEF7F445A0008405A00084C5A0008EB
:103B7800485A0008505A00080123069A3146284638
:103B8800B84701303FF4CDAE0BF1010BD4F858A083
:103B9800AAEB09035B45EFDCDDE909239A42D0442F
:103BA80015DB2368DA0712D40A9B0999A3EB0A02EA
:103BB800A3EB010A9245A8BF9246BAF1000F0EDCAA
:103BC8004FF000082AEAEA7A04F11A0919E0DDE957
:103BD800042331462846B8470130E5D1A1E65346CB
:103BE800424631462846B8470130E9D199E60123D3
:103BF8004A4631462846B84701303FF492AE08F1AC
:103C08000108DDE909239B1AA3EB0A034345EEDC0F
:103C18004AE70A9A012A01DCDB073AD50123424622
:103C280031462846B84701303FF47BAEDDE904232E
:103C380031462846B847013008F101083FF471AE13
:103C48000A9B002203F1FF3AD4E912010023FCF792
:103C5800E3FEC8B95346424631462846B8470130C4
:103C68000ED15EE60123524631462846B847013058
:103C78003FF457AE08F101080A9B013B4345F1DCCC
:103C88004B4604F15002DEE64FF0000804F11A0A30
:103C9800F2E70123DFE701234A4631462846B847C1
:103CA80001303FF43EAE08F10108E3680B9A9B1A15
:103CB8004345F0DCFCE64FF0000804F11909F4E78D
:103CC80000293FF48BAE0023CDE9020309AB009332
:103CD80049EC108B2260CDF804A00DF1230328468F
:103CE800FFF72EFD804648E62DE9F04791461F462E
:103CF8008A680B69DDF820809342B8BF1346C9F87B
:103D0800003091F8432006460C4612B10133C9F839
:103D180000302368990642BFD9F800300233C9F849
:103D28000030256815F0060507D104F1190AE36883
:103D3800D9F800209B1AAB4228DC94F8433022685B
:103D4800003318BF012392062DD404F143023946EB
:103D58003046C047013020D02368E568D9F80020F4
:103D680003F00603042B08BFAD1AA36822690CBF31
:103D780025EAE57500259342C4BF9B1AED184FF05C
:103D880000091A344D451AD1002008E00123524693
:103D980039463046C047013003D14FF0FF30BDE807
:103DA800F0870135C3E7E1185A1C302081F8430039
:103DB800224494F8451082F843100233C5E70123E2
:103DC800224639463046C0470130E6D009F101099C
:103DD800D8E7000070B50E46054618B183690BB9DF
:103DE80001F052F8AB69AC6813B9284601F04CF8F9
:103DF800234B9C4217D16C68A3891B071DD52369E7
:103E0800DBB1013EA36816F8011F013BA360E9B9C5
:103E1800002B2EDA22460A21284600F03FF801300E
:103E280011D00A2011E0174B9C4201D1AC68E3E79E
:103E3800154B9C4208BFEC68DEE72146284600F097
:103E48007FF80028DDD04FF0FF3070BD002B04DA7A
:103E5800A2699A4206DC0A2904D023685A1C226007
:103E68001970CFE72246284600F018F80130C9D16A
:103E7800E9E723680A205A1C22601870E5E700BFAA
:103E8800805A0008A05A0008605A0008024B0146F0
:103E98001868FFF79FBF00BF10000020F8B50E4656
:103EA8001446054618B183690BB900F0EDFF214BA4
:103EB8009C422AD16C68A369A360A3891A072ED5EE
:103EC800236963B323692068C01A6369F6B2834221
:103ED800374604DC2146284600F06CFF28BBA3685F
:103EE800013BA36023685A1C22601E70636901307D
:103EF800834204D0A389DB0719D50A2E17D121469E
:103F0800284600F057FF90B10FE00B4B9C4201D1BF
:103F1800AC68D0E7094B9C4208BFEC68CBE7214668
:103F2800284600F00DF80028CCD04FF0FF3738466F
:103F3800F8BD00BF805A0008A05A0008605A00085F
:103F4800324B70B51D6806460C4625B1AB6913B9EE
:103F5800284600F099FF2E4B9C420FD16C68B4F9AB
:103F68000C309AB215072CD4D00611D4092232602D
:103F780043F04003A3814FF0FF303EE0254B9C42C5
:103F880001D1AC68EBE7244B9C4208BFEC68E6E73C
:103F9800510712D5616B41B104F14403994202D033
:103FA800304601F069FB00236363A38923F02403EF
:103FB800A3810023636023692360A38943F0080376
:103FC800A38123694BB9A38903F42073B3F5007F58
:103FD80003D02146304601F013F8A28912F00103FC
:103FE8000CD00023A36063695B42A361236953B9C2
:103FF800B4F90C3013F08000BAD170BD920758BFE5
:104008006369A360F2E70020F7E700BF1000002013
:10401800805A0008A05A0008605A00082DE9F74F96
:1040280003690C69A3428046C0F28280013C01F119
:1040380014074FEA840C00F1140657F8245056F878
:10404800240006EB0C03013507EB0C090193B0FBC8
:10405800F5F595B34FF0000A3846B646D34650F802
:10406800042B93B205FB03A34FEA134A9BB2ABEBB5
:104078000303120CDEF800B005FB02A213FA8BF35F
:104088004FEA124A1FFA82FBDEF80020CBEB1242FD
:1040980002EB23429BB243EA024381454FEA224B9B
:1040A8004EF8043BDBD256F80C3033B9019B043B85
:1040B8009E421A4630D3C8F81040404601F008FA2C
:1040C800002825DB013530464FF0000C57F8042B4B
:1040D800D0F800E093B2ACEB0303120C13FA8EF3A2
:1040E800C2EB1E4202EB23429BB243EA0243B945AC
:1040F8004FEA224C40F8043BE8D256F8242006EB5D
:1041080084032AB9043B9E421A460BD3C8F81040D0
:10411800284603B0BDE8F08F1268043B002ACAD1D4
:10412800013CC5E71268043B002AEFD1013CEAE7ED
:104138000020EEE7000000002DE9F04F57EC106B6F
:1041480097B0456A069104460B921293DDF8808079
:10415800CDE900673DB9102000F092FF6062C0E928
:1041680001550560C560636A196851B15A684A60AB
:10417800012393408B60204600F0C9FF636A002248
:104188001A603B1EBBBF23F00043019300230122AA
:10419800ACBFC8F80030C8F80020AF4BDDF8048089
:1041A80033EA080314D1129A42F20F731360009B8A
:1041B80023B9C8F31300002800F04285219BDFF8DB
:1041C800ACB2002B00F044850BF1030300F03EBDB8
:1041D800DDE900670022002330463946FCF71CFC65
:1041E800814668B1129A01231360219B002B00F0CD
:1041F80024859A4B219A03F1FF3B136000F028BDF8
:1042080014AA15A947EC106B204601F0D8F9C8F399
:104218000A550490002D7CD0C7F3130343F07F5B4D
:10422800B2464BF4401BA5F2FF35CDF84C90002266
:104238008B4B50465946FBF7CFFF81A3D3E90023A8
:10424800FCF782F980A3D3E90023FBF7C7FF0646F2
:1042580028460F46FCF70EF97DA3D3E90023FCF7A7
:1042680073F902460B4630463946FBF7B7FF064658
:104278000F46FCF719FC00228246002330463946D7
:10428800FCF7D4FB48B15046FCF7F4F832463B46FD
:10429800FCF7C2FB08B90AF1FF3ABAF1160F59D870
:1042A800704901EBCA01DDE90023D1E90001FCF7FF
:1042B800DBFB002850D00AF1FF3A00230F93149B30
:1042C8005D1BB5F1010849BFC5F101030023059342
:1042D8004FF0000858BF0593BAF1000F3EDB0023EA
:1042E800D044CDF838A00793069B092B00F29080A4
:1042F800052BC4BF043B0693069BA3F10203CCBF66
:1043080000250125032B00F28F80DFE803F07D7F75
:104318003171DDE914531D4405F23240202813DDC4
:10432800C0F14000009B08FA00F805F2124023FA99
:1043380000F048EA0000FCF78DF801238246A1F15D
:10434800F87B013D139372E7009BC0F1200003FA4C
:1043580000F0F0E70123B1E70F90B0E7059BA3EB6E
:104368000A030593CAF10003079300230E93BBE7E2
:1043780001230A930B9B002B59DD02939946666A29
:1043880000227260042202F114009842716853D925
:10439800204600F088FE636A3060B9F10E0FD3F84A
:1043A80000B000F2E680002D00F0E3809DED007B78
:1043B800BAF1000F8DED107B74DD2A4A0AF00F0365
:1043C80002EBC30393ED007B4FEA2A16F0068DED4E
:1043D800087B65D5244BDDE91001D3E90823FCF7F8
:1043E800DDF9CDE9000106F00F0603251E4F4CE06C
:1043F80001230A930B9B534403F1010902934B4693
:10440800012BB8BF0123BAE70023B2E70023F0E786
:104418000125002306930A954FF0FF33029399462E
:10442800002212230B92AAE701230A93F4E701233F
:10443800029399461A46F5E7013171605200A2E7E6
:1044480061436F63A787D23FB3C8608B288AC63F92
:10445800FB799F501344D33F0000F07F515A000866
:104468000000F83FE85A0008C05A00085B5A0008E4
:10447800F10708D5DDE90801D7E90023FCF764F85E
:10448800CDE90801013576100837002EF0D1DDE9B5
:104498000823DDE90001FCF781F9CDE900011AE004
:1044A8000225A3E700F0A080CAF100069F4BA04FA9
:1044B80006F00F0203EBC203D3E90023DDE9100184
:1044C800FCF742F8CDE90001361100230225002E41
:1044D8007FD1002BE1D10F9B002B00F08780DDE915
:1044E80000670022934B30463946FCF79FFA0028B4
:1044F8007CD0B9F1000F79D0029B002B35DD0AF191
:10450800FF330893394600228B4B3046FCF71CF8E2
:10451800CDE90001029F01352846FBF7ABFFDDE935
:104528000023FCF711F80022844BFBF757FE0546E1
:10453800A1F15076002F5DD10022814BDDE9000109
:10454800FBF74AFE2A463346CDE90001FCF78CFA10
:10455800002840F088822A4606F10043DDE9000180
:10456800FCF764FA002840F07C82DDE91023CDE9ED
:104578000023159B002BC0F25081BAF10E0F00F3F7
:104588004C816A4B03EBCA0393ED007B0B9B002B1A
:104598008DED027B80F2D880B9F1000F00F3D48052
:1045A80040F05E820022664B51EC170BFBF7CCFF04
:1045B800DDE90023FCF74EFA4F464E46002840F04E
:1045C800348231230BF101058BF800300AF1010A1E
:1045D8002FE2F20705D5D7E90023FBF7B5FF013530
:1045E80001237610083772E7022574E7CDF820A07A
:1045F8004F4691E74D4B03EBC70353E902010A9B72
:10460800002B47D002460B4600204E49FCF7C6F85F
:104618002A463346FBF7E0FDCDE90C015D46DDE9AE
:104628000001FCF741FA0646FBF724FF02460B4659
:10463800DDE90001FBF7D0FD303605F8016BDDE957
:104648000C23CDE90001FCF7F1F9002863D1DDE97D
:10465800002300203749FBF7BFFDDDE90C23FCF7F9
:10466800E5F9002840F0B780A5EB0B039F427FF7E0
:104678007CAF0022304BDDE90C01FBF765FF00221F
:10468800CDE90C012C4BDDE90001FBF75DFFCDE91D
:104698000001C4E72A463346FBF756FFCDE90C0173
:1046A8000BEB07055E46DDE90001FCF7FDF907465F
:1046B800FBF7E0FE303702460B46DDE90001FBF769
:1046C8008BFD06F8017BAE42CDE900014FF00002F8
:1046D80026D11C4BDDE90C01FBF780FD02460B4699
:1046E800DDE90001FCF7C0F9002874D1DDE90C23ED
:1046F80000201449FBF770FD02460B46DDE9000176
:10470800FCF794F900283FF430AF15F8013C302B42
:1047180005F1FF3202D0DDF820A04AE01546F4E7A3
:10472800054BFBF711FFCDE90001BCE7E85A00088B
:10473800C05A00080000F03F0000244000001C4060
:10474800000014400000E03FDDE900675D46DDE958
:10475800022330463946FCF721F8FCF7A5F98046D4
:10476800FBF788FEDDE90223FBF7EEFE02460B4667
:104778003046394608F13006FBF72EFD05F8016B87
:10478800A5EB0B06B14502460B4639D1FBF726FDD2
:10479800DDE9022306460F46FCF766F9C8B9DDE9EC
:1047A800022330463946FCF737F910B118F0010FEB
:1047B8000FD10499204600F0AAFC0023129A2B700E
:1047C8000AF101031360219B002B00F041821D6058
:1047D8003EE2CDF820A015F8012C392A05F1FF3367
:1047E80008D19B450AD1089B0133089330238BF8E5
:1047F80000305B461A7801321A708CE71D46EAE7EA
:1048080000229B4BFBF7A0FE0022002306460F4622
:10481800FCF702F900289AD0CBE70A9A002A00F0A0
:104828008B80069A012A6EDC139A002A67D003F25D
:104838003343079F059D059A01211A442046059296
:10484800984400F004FD0646002D0CDDB8F1000F79
:1048580009DD4545059A2B46A8BF4346D21A05925D
:10486800ED1AA8EB0308079BEBB10A9B002B67D056
:104878008FB131463A46204600F088FD049A014639
:104888000646204600F0ECFC04990890204600F00B
:104898003EFC089B0493079BDA1B04D0049920462E
:1048A80000F074FD04900121204600F0D0FC0E9B1E
:1048B8000746002B00F0D0811A460146204600F03A
:1048C80065FD069B012B074640DC009B002B39D178
:1048D800019BC3F31303002B36D1019B23F0004344
:1048E8001B0D1B052BB1059B0133059308F101082E
:1048F800012307930E9B002B2AD1012030E0149B43
:10490800C3F1360395E7079B09F1FF37BB42BFBFE9
:10491800079B0797FA1A0E9BBBBF9B180E93DF1BCA
:104928000027B9F1000FB5BF059B059DA3EB09054D
:104938004B46B8BF00237EE7079F059D0A9E83E785
:10494800079AABE70023D4E7009BD2E7002307933D
:104958003B6907EB8303186900F02BFCC0F12000CA
:10496800404410F01F0047D0C0F12003042B3BDD6A
:10497800059BC0F11C000344059305448044059B36
:10498800002B05DD1A460499204600F04DFD0490E1
:10499800B8F1000F05DD39464246204600F044FDD7
:1049A80007460F9B53B33946049800F091FD002841
:1049B80024DA00230A220499204600F0BFFB0A9B50
:1049C80004900AF1FF3A002B00F04D810023314694
:1049D8000A22204600F0B2FB029B002B06464FDC61
:1049E800069B022B4CDD11E0C9D0059A1C331A44F2
:1049F80005921D449844C2E70346F6E7B9F1000F53
:104A080038DC069B022B35DDCDF80890029B63B994
:104A180039460522204600F091FB014607460498D6
:104A280000F056FD00283FF7CCAD0B9B5D466FEAC2
:104A3800030A4FF000093946204600F068FB002EB3
:104A48003FF4B7AEB9F1000F05D0B14503D04946E0
:104A5800204600F05CFB3146204600F058FBA8E6F3
:104A680000273E46E1E7DDF820A03E46A9E500BF65
:104A7800000024400A9BCDF80890002B00F0FA8033
:104A8800002D05DD31462A46204600F0CDFC0646BD
:104A9800079B002B4CD07168204600F004FB32695C
:104AA80002320546920006F10C010C3000F0F0FAD3
:104AB80001222946204600F0B7FC009BCDF814B02F
:104AC80003F00103B1460793064639460498FFF7F9
:104AD800A5FA4946054600F13008049800F0F8FCAC
:104AE800324600903946204600F00CFDC368024665
:104AF80003BB01460890049800F0EAFC089A0346B4
:104B080011462046089300F002FB089BA3B9069AB9
:104B180092B9079A82B9B8F1390F29D0009B002BB6
:104B280001DD05F13108059B5D1C83F8008082E7F3
:104B38003046C2E70123E3E7009A002A04DB25D1C7
:104B4800069A1ABB079A0ABB002BECDD01220499CE
:104B5800204600F069FC3946049000F0B9FC0028B2
:104B680003DCE0D118F0010FDDD0B8F1390FD8D14E
:104B7800059B059A5D1C3923137015F8013C392BE8
:104B880005F1FF324FD00133137054E7059A002B1B
:104B980002F1010506DDB8F1390FE9D008F1010885
:104BA800059BC2E7029A05F8018CA5EB0B0393421B
:104BB80021D000230A220499204600F0BFFAB1450B
:104BC80004904FF000034FF00A024946204605D1F1
:104BD80000F0B4FA81460646059576E700F0AEFA8D
:104BE8003146814600230A22204600F0A7FA0646ED
:104BF800F2E74FF0000901220499204600F014FC66
:104C08003946049000F064FC0028B6DC02D118F0A4
:104C1800010FB2D115F8013C302B05F1FF327FF4BA
:104C28000AAF1546F6E7934505D131230AF1010A83
:104C38008BF80030FFE615469FE7DFF864B007E021
:104C4800219BDFF860B01BB10BF10803219A1360B8
:104C5800584617B0BDE8F08F069B012B7FF735AE9D
:104C68000E9B079349E6029B002B03DC069B022B55
:104C78003FF7CCAE5D4639460498FFF7CFF900F10F
:104C8800300805F8018B029AA5EB0B039A42B0DDB8
:104C980000230A220499204600F050FA0490EAE71B
:104CA800505A0008525A00088A892DE9F0410546F1
:104CB80010070C4658D44B68002B05DC0B6C002BF6
:104CC80002DC0020BDE8F081E66A002EF9D000235E
:104CD80012F480522F68216A2B6032D0606DA3894C
:104CE8005A0705D56368C01A636B0BB1236CC01AE9
:104CF80000230246E66A216A2846B047431CA38976
:104D080006D129681D2948D8294ACA40D60744D55A
:104D180000226260D9042269226004D5421C01D1B4
:104D28002B6803B96065616B2F600029C9D004F155
:104D38004403994202D0284600F09EFC002060639C
:104D4800C0E701232846B047411CC8D12B68002B77
:104D5800C5D01D2B01D0162B01D12F60B1E7A38937
:104D680043F04003A381ADE70F69002FA9D0930753
:104D78000E6808BF4B690F6018BF0023A6EB070831
:104D88008B60B8F1000F9CDD43463A46216AA66A5B
:104D98002846B047002806DCA38943F04003A381D6
:104DA8004FF0FF308EE70744A8EB0008E9E700BFA3
:104DB8000100402038B50B6905460C46DBB118B137
:104DC80083690BB900F060F80C4B9C4209D16C6800
:104DD800B4F90C307BB121462846BDE83840FFF7CE
:104DE80063BF074B9C4201D1AC68F1E7054B9C427D
:104DF80008BFEC68ECE7002038BD00BF805A000807
:104E0800A05A0008605A0008002310B50446C0E9FB
:104E18000033836081814366C281C0E904338361C2
:104E2800194608225C30FEF783FC054B6362054B8C
:104E3800A362054BE362054B2462236310BD00BFE8
:104E4800F1570008135800084B5800086F5800081D
:104E5800014900F085B800BFBD4D000870B54A1E75
:104E6800682555430E4605F1740100F053FC0446CD
:104E780040B10021C0E900160C30A06005F16802BD
:104E8800FEF756FC204670BD836910B5044633BB57
:104E9800C0E912330365124B124A1B6882629842BA
:104EA80004BF0123836100F01FF86060204600F012
:104EB8001BF8A060204600F017F80022E0600421EB
:104EC8006068FFF7A1FF01220921A068FFF79CFF96
:104ED80002221221E068FFF797FF0123A36110BDAA
:104EE8003C5A0008594E0008F8B51B4B1E68B369B8
:104EF800074613B93046FFF7C7FF4836D6E90134ED
:104F0800013B03D5336833B13668F7E7B4F90C5081
:104F18006DB16834F4E704213846FFF79FFF30602D
:104F28000028F1D10C233B6004462046F8BD0B4B0A
:104F38006566C4E90055A560C4E90335C4E90555AB
:104F48000822294604F15C00FEF7F2FBC4E90D557E
:104F5800C4E91255E9E700BF3C5A00080100FFFF09
:104F68002DE9F8438046894600F14804002614B923
:104F78003046BDE8F883D4E90175013F01D52468BE
:104F8800F5E7AB89012B07D9B5F90E30013303D00A
:104F980029464046C84706436835EEE7044B1B6878
:104FA800186A044B002808BF1846F030704700BF45
:104FB800100000207400002070B50E46B1F90E10E4
:104FC800002996B014461D4607DA00232B60B389E2
:104FD8001A0610D44FF480630EE06A4600F06AFCAB
:104FE8000028F2DB019A02F47042A2F500535A42FB
:104FF8005A412A60EEE740230020236016B070BDB6
:105008008B8973B59D0706460C4607D504F14703FF
:10501800236023610123636102B070BD01AB6A465E
:10502800FFF7CAFF00990546304600F073FB48B900
:10503800B4F90C309A05EFD423F0030343F00203CC
:10504800A381E3E70D4BB362A389206043F080039B
:10505800A381009B6361019B20615BB1B4F90E10D1
:10506800304600F039FC28B1A38923F0030343F04C
:105078000103A381A3891D43A581CDE7594E0008EB
:10508800024B0146186800F045BB00BF1000002025
:1050980010B5431E0A44914200D110BD11F8014BCE
:1050A80003F8014FF7E770B5456A04460E463DB967
:1050B8001020FFF7E5FF6062C0E901550560C56093
:1050C800656AEB6883B1636ADB6853F82600B8B990
:1050D800012101FA06F56A1D9200204600F0BEFA89
:1050E80060B1C0E901650EE021220421204600F0EC
:1050F800B5FA636AE860DB68002BE4D1002070BD74
:10510800026843F826200023C0E90333F7E770B5A7
:10511800446A06460D463CB91020FFF7B1FF70629D
:10512800C0E901440460C4603DB1736A6A68DB6821
:1051380053F82210296043F8225070BD2DE9F04140
:105148000D691F4606460C4601F1140C0023DCF8D5
:10515800000081B202FB01710F0C000C02FB007011
:1051680089B2013301EB00419D424FEA10474CF8E8
:10517800041BECDCD7B1A368AB4212DC6168304693
:105188000131FFF790FF2269023204F10C018046D9
:1051980092000C30FFF77CFF21463046FFF7B7FF3F
:1051A800444604EB850301355F6125612046BDE86F
:1051B800F081020C12040346B2B90304102013F064
:1051C8007F4F04BF1B02083013F0704F04BF1B0150
:1051D800043013F0404F04BF9B000230002B06DB65
:1051E8005B0003D5013070470020E8E720207047B6
:1051F800036813F0070201460BD0DA0723D4980797
:1052080049BF5B089B0801200B605CBF0B60022054
:10521800704798B2A8B91B0C102013F0FF0F04BFF9
:105228001B0A08301A0704BF1B0904309A0704BF79
:105238009B080230DA0702D45B0806D001300B6005
:1052480070471046E9E7002070472020704710B5E6
:105258000C460121FFF727FF01224461026110BDBE
:105268002DE9F74F14460A6923699A42B8BF0B46DD
:105278008846BCBFA0461C46D8F81070D4F81090D9
:10528800D8F80830D8F8041007EB0906B342B8BFBD
:105298000131FFF708FF00F1140505EB860E2B46D8
:1052A8000022734516D304F1140208F1140102EB2D
:1052B800890301EB87070093009B019293420CD866
:1052C800002E03DD5EF8043D002B5DD0066103B0BF
:1052D800BDE8F08F43F8042BE3E7B2F800B0BBF168
:1052E800000F23D08946AC464FF0000859F8044B0C
:1052F800DCF800A0A3B21FFA8AFA0BFB03A34FEA5B
:10530800144ADCF8004043444FEA14480BFB0A8473
:1053180004EB1344E2469BB243EA04434F454FEA89
:1053280014484AF8043B2BD8CCF80480019BB3F806
:1053380002A00432BAF1000F20D02B688946A84693
:105348004FF0000BB9F800C0B8F802400AFB0C4453
:105358005C44C4469BB243EA04434CF8043B59F806
:10536800043BB8F804B01B0C0AFB03B303EB14436B
:105378004F454FEA134B05D8C8F8043004359BE76E
:10538800D446B3E7E046DDE7013E99E72DE9F84367
:10539800154612F0030206460F4607D0013A214C83
:1053A800002354F82220FFF7C9FE0746AD1035D078
:1053B800746A3CB91020FFF763FE7062C0E90144CB
:1053C8000460C460D6F82480D8F808404CB940F28C
:1053D80071213046FFF73BFF0023C8F80800044658
:1053E80003604FF00008EB070AD5394622463046DD
:1053F800FFF736FF394681463046FFF788FE4F46AD
:105408006D100BD0206838B9224621463046FFF788
:1054180027FF2060C0F800800446E4E73846BDE86E
:10542800F88300BFB05B00082DE9F0470C464FEA4F
:10543800621A236949680AEB0309A36807461646F6
:1054480009F10105AB4232DB3846FFF72CFE002399
:10545800804600F114011A4653452BDB20692AEADD
:10546800EA7A04F1140316F01F0201EB8A0103EB38
:10547800800C25D0C2F1200E00201E688A46964076
:1054880030434AF8040B53F8040B9C4520FA0EF0FD
:1054980014D8486008B109F10205013D3846C8F83A
:1054A80010502146FFF733FE4046BDE8F087013132
:1054B8005B00C7E741F823200133CDE75146DCE71D
:1054C800043953F8042B41F8042F9C45F9D8E4E734
:1054D80003690A699B1A30B50CD192001430143153
:1054E8008418114454F8045D51F8042D954203D0F2
:1054F80005D30123184630BDA042F3D3FAE74FF095
:10550800FF33F7E72DE9F0470D46074611462846D1
:105518001446FFF7DDFF061E08D131463846FFF76F
:10552800C2FD0123C0E90436BDE8F087A4BF2346C5
:105538002C4638466168A6BF1D4600260126FFF79F
:10554800B2FD2B69C660266905F1140904F114023D
:1055580002EB860709EB830800F114054FF0000EF3
:1055680052F804AB59F8044B1EFA8AF1A3B2C91ACF
:10557800230CC3EB1A4303EB214389B24FEA234EB2
:10558800C84541EA0343944645F8043BE8D8BC457E
:1055980004D355F8043D83B10661C5E75CF8041BE4
:1055A8001EFA81F31A1402EB11429BB243EA02433A
:1055B8004FEA224E45F8043BE9E7013EE9E72DE9C9
:1055C800F7430E46012159EC108B1546FFF76BFD8A
:1055D800C9F30A540746C9F3130334BB0193B8F15E
:1055E800000327D002A840F8083DFFF701FE009904
:1055F800F0B1019AC0F1200302FA03F30B43C24051
:105608007B610192019BBB61002B14BF0221012128
:105618003961C4B1A4F2334404443460C0F13500A4
:105628002860384603B0BDE8F08343F48013D5E71B
:105638007961E7E701A8FFF7DBFD019B7B610121A9
:1056480039612030E5E707EB8103A0F23240306092
:105658001869FFF7AEFDC0EB4110E1E738B502FB72
:1056680001F4214600F056F8054618B122460021FB
:10567800FEF75EF8284638BD38B50546002945D0FE
:1056880051F8043C0C1F002BB8BFE41800F058F97F
:105698001F4A1368104633B9636014602846BDE892
:1056A800384000F04EB9A3420CD9216862189342E1
:1056B80004BF1A685B68636004BF52182260046004
:1056C800ECE713465A680AB1A242FAD91968581881
:1056D800A0420BD120680144581882421960DDD1DC
:1056E800106852685A6001441960D7E702D90C2340
:1056F8002B60D3E7206821188A4204BF11685268DA
:10570800626004BF091821605C60C7E738BD00BF4C
:10571800F803002070B5CD1C25F0030508350C2DC5
:1057280038BF0C25002D064601DBA94203D90C23FE
:105738003360002070BD00F003F9214A1468214647
:1057480091B9204C23681BB9304600F03DF8206021
:105758002946304600F038F8431C24D10C23336026
:10576800304600F0EEF8E4E70B685B1B18D40B2B0F
:105778000FD90B60CD50CC18304600F0E2F804F198
:105788000B00231D20F00700C31AD3D05A42E25061
:10579800D0E78C424B6816BF636013600C46EBE79A
:1057A8000C464968CCE7C41C24F00304A04205D089
:1057B800211A304600F008F80130CFD02560DBE729
:1057C800F8030020FC03002038B5064C00230546EA
:1057D8000846236000F0FEF8431C02D1236803B199
:1057E8002B6038BD8806002010B50C46B1F90E10A4
:1057F80000F0A8F80028ABBF636DA3891B1823F439
:105808008053ACBF6365A38110BD2DE9F0411F46ED
:105818008B89DB0505460C46164605D50223002272
:10582800B1F90E1000F068F8A389B4F90E1023F44A
:105838008053A38132463B462846BDE8F04100F03C
:1058480017B810B50C46B1F90E1000F055F8431C06
:10585800A38915BF606523F4805343F48053A38163
:1058680018BFA38110BDB1F90E1000F013B80000E5
:1058780038B5074C054608461146002222601A46EC
:10588800FBF7E1FA431C02D1236803B12B6038BD52
:105898008806002038B5064C0023054608462360D4
:1058A80000F070F8431C02D1236803B12B6038BDA7
:1058B8008806002038B5074C0023054608461146DF
:1058C800236000F067F8431C02D1236803B12B6002
:1058D80038BD00BF8806002038B5064C00230546B1
:1058E8000846236000F05EF8431C02D1236803B128
:1058F8002B6038BD8806002038B5074C0546084699
:105908001146002222601A4600F054F8431C02D1C6
:10591800236803B12B6038BD8806002082B001B926
:1059280001A942B14BB113780B601278101C18BF53
:10593800012002B070471046FBE76FF00100F8E75E
:105948007047704738B5074C05460846114600228F
:1059580022601A4600F036F8431C02D1236803B1CE
:105968002B6038BD8806002049B1FF2A85BF8A23ED
:1059780003600A704FF0FF3098BF01207047084657
:1059880070470000024B58221A604FF0FF307047F2
:1059980088060020024B58221A604FF0FF307047EB
:1059A80088060020024B58221A600020704700BF6A
:1059B80088060020024B58221A604FF0FF307047CB
:1059C80088060020024B58221A604FF0FF307047BB
:1059D80088060020044A05491368002B08BF0B46B7
:1059E80018441060184670470004002090060020F4
:1059F800F8B500BFF8BC08BC9E467047F8B500BFB4
:085A0800F8BC08BC9E46704783
:105A1000000610160006101600000000000000002E
:105A20000102030406070809000000000102030444
:105A30000A206F6868207965616800001400002002
:105A4000494E4600696E66004E414E006E616E0022
:105A50003000496E66696E697479004E614E0000CF
:105A60000000000000000000000000000000000036
:105A70000000000000000000000000000000000026
:105A80000000000000000000000000000000000016
:105A90000000000000000000000000000000000006
:105AA00000000000000000000000000000000000F6
:105AB00000000000000000000000000000000000E6
:105AC0000080E03779C34143176E05B5B5B89346FA
